{
    "contractName": "MetaDappToken",
    "abi": [
        {
            "inputs": [],
            "stateMutability": "nonpayable",
            "type": "constructor"
        },
        {
            "anonymous": false,
            "inputs": [
                {
                    "indexed": true,
                    "internalType": "address",
                    "name": "owner",
                    "type": "address"
                },
                {
                    "indexed": true,
                    "internalType": "address",
                    "name": "spender",
                    "type": "address"
                },
                {
                    "indexed": false,
                    "internalType": "uint256",
                    "name": "value",
                    "type": "uint256"
                }
            ],
            "name": "Approval",
            "type": "event"
        },
        {
            "anonymous": false,
            "inputs": [
                {
                    "indexed": true,
                    "internalType": "address",
                    "name": "from",
                    "type": "address"
                },
                {
                    "indexed": true,
                    "internalType": "address",
                    "name": "to",
                    "type": "address"
                },
                {
                    "indexed": false,
                    "internalType": "uint256",
                    "name": "value",
                    "type": "uint256"
                }
            ],
            "name": "Transfer",
            "type": "event"
        },
        {
            "inputs": [
                {
                    "internalType": "address",
                    "name": "owner",
                    "type": "address"
                },
                {
                    "internalType": "address",
                    "name": "spender",
                    "type": "address"
                }
            ],
            "name": "allowance",
            "outputs": [
                {
                    "internalType": "uint256",
                    "name": "",
                    "type": "uint256"
                }
            ],
            "stateMutability": "view",
            "type": "function"
        },
        {
            "inputs": [
                {
                    "internalType": "address",
                    "name": "spender",
                    "type": "address"
                },
                {
                    "internalType": "uint256",
                    "name": "amount",
                    "type": "uint256"
                }
            ],
            "name": "approve",
            "outputs": [
                {
                    "internalType": "bool",
                    "name": "",
                    "type": "bool"
                }
            ],
            "stateMutability": "nonpayable",
            "type": "function"
        },
        {
            "inputs": [
                {
                    "internalType": "address",
                    "name": "account",
                    "type": "address"
                }
            ],
            "name": "balanceOf",
            "outputs": [
                {
                    "internalType": "uint256",
                    "name": "",
                    "type": "uint256"
                }
            ],
            "stateMutability": "view",
            "type": "function"
        },
        {
            "inputs": [
                {
                    "internalType": "uint256",
                    "name": "amount",
                    "type": "uint256"
                }
            ],
            "name": "burn",
            "outputs": [],
            "stateMutability": "nonpayable",
            "type": "function"
        },
        {
            "inputs": [],
            "name": "decimals",
            "outputs": [
                {
                    "internalType": "uint8",
                    "name": "",
                    "type": "uint8"
                }
            ],
            "stateMutability": "view",
            "type": "function"
        },
        {
            "inputs": [
                {
                    "internalType": "address",
                    "name": "spender",
                    "type": "address"
                },
                {
                    "internalType": "uint256",
                    "name": "subtractedValue",
                    "type": "uint256"
                }
            ],
            "name": "decreaseAllowance",
            "outputs": [
                {
                    "internalType": "bool",
                    "name": "",
                    "type": "bool"
                }
            ],
            "stateMutability": "nonpayable",
            "type": "function"
        },
        {
            "inputs": [
                {
                    "internalType": "address",
                    "name": "spender",
                    "type": "address"
                },
                {
                    "internalType": "uint256",
                    "name": "addedValue",
                    "type": "uint256"
                }
            ],
            "name": "increaseAllowance",
            "outputs": [
                {
                    "internalType": "bool",
                    "name": "",
                    "type": "bool"
                }
            ],
            "stateMutability": "nonpayable",
            "type": "function"
        },
        {
            "inputs": [],
            "name": "name",
            "outputs": [
                {
                    "internalType": "string",
                    "name": "",
                    "type": "string"
                }
            ],
            "stateMutability": "view",
            "type": "function"
        },
        {
            "inputs": [],
            "name": "symbol",
            "outputs": [
                {
                    "internalType": "string",
                    "name": "",
                    "type": "string"
                }
            ],
            "stateMutability": "view",
            "type": "function"
        },
        {
            "inputs": [],
            "name": "totalSupply",
            "outputs": [
                {
                    "internalType": "uint256",
                    "name": "",
                    "type": "uint256"
                }
            ],
            "stateMutability": "view",
            "type": "function"
        },
        {
            "inputs": [
                {
                    "internalType": "address",
                    "name": "to",
                    "type": "address"
                },
                {
                    "internalType": "uint256",
                    "name": "amount",
                    "type": "uint256"
                }
            ],
            "name": "transfer",
            "outputs": [
                {
                    "internalType": "bool",
                    "name": "",
                    "type": "bool"
                }
            ],
            "stateMutability": "nonpayable",
            "type": "function"
        },
        {
            "inputs": [
                {
                    "internalType": "address",
                    "name": "from",
                    "type": "address"
                },
                {
                    "internalType": "address",
                    "name": "to",
                    "type": "address"
                },
                {
                    "internalType": "uint256",
                    "name": "amount",
                    "type": "uint256"
                }
            ],
            "name": "transferFrom",
            "outputs": [
                {
                    "internalType": "bool",
                    "name": "",
                    "type": "bool"
                }
            ],
            "stateMutability": "nonpayable",
            "type": "function"
        }
    ],
    "bytecode": "60806040523480156200001157600080fd5b506040518060400160405280600e81526020016d26b2ba30a230b838102a37b5b2b760911b815250604051806040016040528060038152602001624d444160e81b81525081600390805190602001906200006d9291906200018f565b508051620000839060049060208401906200018f565b505050620000a23369d3c21bcecceda1000000620000a860201b60201c565b620002d7565b6001600160a01b038216620000da5760405162461bcd60e51b8152600401620000d19062000235565b60405180910390fd5b620000e8600083836200018a565b8060026000828254620000fc919062000275565b90915550506001600160a01b038216600090815260208190526040812080548392906200012b90849062000275565b90915550506040516001600160a01b038316906000907fddf252ad1be2c89b69c2b068fc378daa952ba7f163c4a11628f55a4df523b3ef90620001709085906200026c565b60405180910390a362000186600083836200018a565b5050565b505050565b8280546200019d906200029a565b90600052602060002090601f016020900481019282620001c157600085556200020c565b82601f10620001dc57805160ff19168380011785556200020c565b828001600101855582156200020c579182015b828111156200020c578251825591602001919060010190620001ef565b506200021a9291506200021e565b5090565b5b808211156200021a57600081556001016200021f565b6020808252601f908201527f45524332303a206d696e7420746f20746865207a65726f206164647265737300604082015260600190565b90815260200190565b600082198211156200029557634e487b7160e01b81526011600452602481fd5b500190565b600281046001821680620002af57607f821691505b60208210811415620002d157634e487b7160e01b600052602260045260246000fd5b50919050565b610b1b80620002e76000396000f3fe608060405234801561001057600080fd5b50600436106100b45760003560e01c806342966c681161007157806342966c681461014757806370a082311461015c57806395d89b411461016f578063a457c2d714610177578063a9059cbb1461018a578063dd62ed3e1461019d576100b4565b806306fdde03146100b9578063095ea7b3146100d757806318160ddd146100f757806323b872dd1461010c578063313ce5671461011f5780633950935114610134575b600080fd5b6100c16101b0565b6040516100ce91906107a8565b60405180910390f35b6100ea6100e536600461075c565b610242565b6040516100ce919061079d565b6100ff610264565b6040516100ce9190610a4e565b6100ea61011a366004610721565b61026a565b610127610298565b6040516100ce9190610a57565b6100ea61014236600461075c565b61029d565b61015a610155366004610785565b6102c9565b005b6100ff61016a3660046106ce565b6102dd565b6100c16102fc565b6100ea61018536600461075c565b61030b565b6100ea61019836600461075c565b61035c565b6100ff6101ab3660046106ef565b610374565b6060600380546101bf90610a94565b80601f01602080910402602001604051908101604052809291908181526020018280546101eb90610a94565b80156102385780601f1061020d57610100808354040283529160200191610238565b820191906000526020600020905b81548152906001019060200180831161021b57829003601f168201915b5050505050905090565b60008061024d61039f565b905061025a8185856103a3565b5060019392505050565b60025490565b60008061027561039f565b9050610282858285610457565b61028d8585856104a1565b506001949350505050565b601290565b6000806102a861039f565b905061025a8185856102ba8589610374565b6102c49190610a65565b6103a3565b6102da6102d461039f565b826105c5565b50565b6001600160a01b0381166000908152602081905260409020545b919050565b6060600480546101bf90610a94565b60008061031661039f565b905060006103248286610374565b90508381101561034f5760405162461bcd60e51b815260040161034690610a09565b60405180910390fd5b61028d82868684036103a3565b60008061036761039f565b905061025a8185856104a1565b6001600160a01b03918216600090815260016020908152604080832093909416825291909152205490565b3390565b6001600160a01b0383166103c95760405162461bcd60e51b8152600401610346906109c5565b6001600160a01b0382166103ef5760405162461bcd60e51b815260040161034690610880565b6001600160a01b0380841660008181526001602090815260408083209487168084529490915290819020849055517f8c5be1e5ebec7d5bd14f71427d1e84f3dd0314c0f7b2291e5b200ac8c7c3b9259061044a908590610a4e565b60405180910390a3505050565b60006104638484610374565b9050600019811461049b578181101561048e5760405162461bcd60e51b8152600401610346906108c2565b61049b84848484036103a3565b50505050565b6001600160a01b0383166104c75760405162461bcd60e51b815260040161034690610980565b6001600160a01b0382166104ed5760405162461bcd60e51b8152600401610346906107fb565b6104f88383836106b2565b6001600160a01b038316600090815260208190526040902054818110156105315760405162461bcd60e51b8152600401610346906108f9565b6001600160a01b03808516600090815260208190526040808220858503905591851681529081208054849290610568908490610a65565b92505081905550826001600160a01b0316846001600160a01b03167fddf252ad1be2c89b69c2b068fc378daa952ba7f163c4a11628f55a4df523b3ef846040516105b29190610a4e565b60405180910390a361049b8484846106b2565b6001600160a01b0382166105eb5760405162461bcd60e51b81526004016103469061093f565b6105f7826000836106b2565b6001600160a01b038216600090815260208190526040902054818110156106305760405162461bcd60e51b81526004016103469061083e565b6001600160a01b038316600090815260208190526040812083830390556002805484929061065f908490610a7d565b90915550506040516000906001600160a01b038516907fddf252ad1be2c89b69c2b068fc378daa952ba7f163c4a11628f55a4df523b3ef906106a2908690610a4e565b60405180910390a36106b2836000845b505050565b80356001600160a01b03811681146102f757600080fd5b6000602082840312156106df578081fd5b6106e8826106b7565b9392505050565b60008060408385031215610701578081fd5b61070a836106b7565b9150610718602084016106b7565b90509250929050565b600080600060608486031215610735578081fd5b61073e846106b7565b925061074c602085016106b7565b9150604084013590509250925092565b6000806040838503121561076e578182fd5b610777836106b7565b946020939093013593505050565b600060208284031215610796578081fd5b5035919050565b901515815260200190565b6000602080835283518082850152825b818110156107d4578581018301518582016040015282016107b8565b818111156107e55783604083870101525b50601f01601f1916929092016040019392505050565b60208082526023908201527f45524332303a207472616e7366657220746f20746865207a65726f206164647260408201526265737360e81b606082015260800190565b60208082526022908201527f45524332303a206275726e20616d6f756e7420657863656564732062616c616e604082015261636560f01b606082015260800190565b60208082526022908201527f45524332303a20617070726f766520746f20746865207a65726f206164647265604082015261737360f01b606082015260800190565b6020808252601d908201527f45524332303a20696e73756666696369656e7420616c6c6f77616e6365000000604082015260600190565b60208082526026908201527f45524332303a207472616e7366657220616d6f756e7420657863656564732062604082015265616c616e636560d01b606082015260800190565b60208082526021908201527f45524332303a206275726e2066726f6d20746865207a65726f206164647265736040820152607360f81b606082015260800190565b60208082526025908201527f45524332303a207472616e736665722066726f6d20746865207a65726f206164604082015264647265737360d81b606082015260800190565b60208082526024908201527f45524332303a20617070726f76652066726f6d20746865207a65726f206164646040820152637265737360e01b606082015260800190565b60208082526025908201527f45524332303a2064656372656173656420616c6c6f77616e63652062656c6f77604082015264207a65726f60d81b606082015260800190565b90815260200190565b60ff91909116815260200190565b60008219821115610a7857610a78610acf565b500190565b600082821015610a8f57610a8f610acf565b500390565b600281046001821680610aa857607f821691505b60208210811415610ac957634e487b7160e01b600052602260045260246000fd5b50919050565b634e487b7160e01b600052601160045260246000fdfea26469706673582212206a22c04dd2354ca2d6d1252fdcde94f02b6f73d5628e52c20249b9645942a07764736f6c63430008000033",
    "sourcePath": "/Users/lscofield/Documents/Projects/Cursos/Metadapp/walldapp/contracts/MetaDappToken.sol",
    "compiler": {
        "name": "solc",
        "version": "0.8.0+commit.c7dfd78e"
    },
    "functionHashes": {
        "allowance(address,address)": "dd62ed3e",
        "approve(address,uint256)": "095ea7b3",
        "balanceOf(address)": "70a08231",
        "burn(uint256)": "42966c68",
        "decimals()": "313ce567",
        "decreaseAllowance(address,uint256)": "a457c2d7",
        "increaseAllowance(address,uint256)": "39509351",
        "name()": "06fdde03",
        "symbol()": "95d89b41",
        "totalSupply()": "18160ddd",
        "transfer(address,uint256)": "a9059cbb",
        "transferFrom(address,address,uint256)": "23b872dd"
    },
    "gasEstimates": {
        "creation": {
            "codeDepositCost": "568600",
            "executionCost": "infinite",
            "totalCost": "infinite"
        },
        "external": {
            "allowance(address,address)": "infinite",
            "approve(address,uint256)": "22619",
            "balanceOf(address)": "infinite",
            "burn(uint256)": "infinite",
            "decimals()": "329",
            "decreaseAllowance(address,uint256)": "23711",
            "increaseAllowance(address,uint256)": "23784",
            "name()": "infinite",
            "symbol()": "infinite",
            "totalSupply()": "1073",
            "transfer(address,uint256)": "infinite",
            "transferFrom(address,address,uint256)": "infinite"
        }
    }
}