{
    "contractName": "MetaDappTokenSale",
    "abi": [
        {
            "inputs": [
                {
                    "internalType": "address",
                    "name": "_token",
                    "type": "address"
                }
            ],
            "stateMutability": "nonpayable",
            "type": "constructor"
        },
        {
            "anonymous": false,
            "inputs": [
                {
                    "indexed": true,
                    "internalType": "address",
                    "name": "previousOwner",
                    "type": "address"
                },
                {
                    "indexed": true,
                    "internalType": "address",
                    "name": "newOwner",
                    "type": "address"
                }
            ],
            "name": "OwnershipTransferred",
            "type": "event"
        },
        {
            "anonymous": false,
            "inputs": [
                {
                    "indexed": false,
                    "internalType": "address",
                    "name": "_buyer",
                    "type": "address"
                },
                {
                    "indexed": false,
                    "internalType": "uint256",
                    "name": "_amount",
                    "type": "uint256"
                }
            ],
            "name": "Sell",
            "type": "event"
        },
        {
            "inputs": [],
            "name": "__phases",
            "outputs": [
                {
                    "components": [
                        {
                            "internalType": "uint256",
                            "name": "total",
                            "type": "uint256"
                        },
                        {
                            "internalType": "uint256",
                            "name": "price",
                            "type": "uint256"
                        },
                        {
                            "internalType": "uint256",
                            "name": "phase",
                            "type": "uint256"
                        }
                    ],
                    "internalType": "struct MetaDappTokenSale.Phase[]",
                    "name": "",
                    "type": "tuple[]"
                }
            ],
            "stateMutability": "view",
            "type": "function"
        },
        {
            "inputs": [],
            "name": "__tokenPrice",
            "outputs": [
                {
                    "internalType": "uint256",
                    "name": "",
                    "type": "uint256"
                }
            ],
            "stateMutability": "view",
            "type": "function"
        },
        {
            "inputs": [],
            "name": "__tokens",
            "outputs": [
                {
                    "internalType": "uint256",
                    "name": "",
                    "type": "uint256"
                }
            ],
            "stateMutability": "view",
            "type": "function"
        },
        {
            "inputs": [
                {
                    "internalType": "uint256",
                    "name": "tokens",
                    "type": "uint256"
                }
            ],
            "name": "buy",
            "outputs": [],
            "stateMutability": "payable",
            "type": "function"
        },
        {
            "inputs": [],
            "name": "currentPhase",
            "outputs": [
                {
                    "components": [
                        {
                            "internalType": "uint256",
                            "name": "total",
                            "type": "uint256"
                        },
                        {
                            "internalType": "uint256",
                            "name": "price",
                            "type": "uint256"
                        },
                        {
                            "internalType": "uint256",
                            "name": "phase",
                            "type": "uint256"
                        }
                    ],
                    "internalType": "struct MetaDappTokenSale.Phase",
                    "name": "",
                    "type": "tuple"
                }
            ],
            "stateMutability": "view",
            "type": "function"
        },
        {
            "inputs": [],
            "name": "endSale",
            "outputs": [],
            "stateMutability": "nonpayable",
            "type": "function"
        },
        {
            "inputs": [],
            "name": "isOwner",
            "outputs": [
                {
                    "internalType": "bool",
                    "name": "",
                    "type": "bool"
                }
            ],
            "stateMutability": "view",
            "type": "function"
        },
        {
            "inputs": [],
            "name": "owner",
            "outputs": [
                {
                    "internalType": "address",
                    "name": "",
                    "type": "address"
                }
            ],
            "stateMutability": "view",
            "type": "function"
        },
        {
            "inputs": [
                {
                    "internalType": "uint256",
                    "name": "phase_id",
                    "type": "uint256"
                }
            ],
            "name": "phase",
            "outputs": [
                {
                    "components": [
                        {
                            "internalType": "uint256",
                            "name": "total",
                            "type": "uint256"
                        },
                        {
                            "internalType": "uint256",
                            "name": "price",
                            "type": "uint256"
                        },
                        {
                            "internalType": "uint256",
                            "name": "phase",
                            "type": "uint256"
                        }
                    ],
                    "internalType": "struct MetaDappTokenSale.Phase",
                    "name": "",
                    "type": "tuple"
                }
            ],
            "stateMutability": "view",
            "type": "function"
        },
        {
            "inputs": [],
            "name": "renounceOwnership",
            "outputs": [],
            "stateMutability": "nonpayable",
            "type": "function"
        },
        {
            "inputs": [],
            "name": "tokensSold",
            "outputs": [
                {
                    "internalType": "uint256",
                    "name": "",
                    "type": "uint256"
                }
            ],
            "stateMutability": "view",
            "type": "function"
        },
        {
            "inputs": [],
            "name": "totalTokens",
            "outputs": [
                {
                    "internalType": "uint256",
                    "name": "",
                    "type": "uint256"
                }
            ],
            "stateMutability": "view",
            "type": "function"
        },
        {
            "inputs": [
                {
                    "internalType": "address",
                    "name": "newOwner",
                    "type": "address"
                }
            ],
            "name": "transferOwnership",
            "outputs": [],
            "stateMutability": "nonpayable",
            "type": "function"
        }
    ],
    "bytecode": "6080604052600480546001600160a01b03191690553480156200002157600080fd5b506040516200102638038062001026833981016040819052620000449162000192565b620000586200005262000122565b62000126565b600580546001600160a01b0319166001600160a01b03831617905565048c2739500060015560006006819055600255620000956207a12062000176565b60035560015b600a81116200011a576007604051806060016040528061c350815260200160015484620000c99190620001c2565b815260209081018490528254600181810185556000948552938290208351600390920201908155908201519281019290925560400151600290910155806200011181620001e4565b9150506200009b565b505062000218565b3390565b600080546001600160a01b038381166001600160a01b0319831681178455604051919092169283917f8be0079c531659141344cd1fd0a4f28419497f9722a3daafe3b4186f6b6457e09190a35050565b60006200018c82670de0b6b3a7640000620001c2565b92915050565b600060208284031215620001a4578081fd5b81516001600160a01b0381168114620001bb578182fd5b9392505050565b6000816000190483118215151615620001df57620001df62000202565b500290565b6000600019821415620001fb57620001fb62000202565b5060010190565b634e487b7160e01b600052601160045260246000fd5b610dfe80620002286000396000f3fe6080604052600436106100c25760003560e01c80637e1c0c091161007f5780639dedf2e6116100595780639dedf2e6146101db578063d96a094a146101f0578063e050915114610203578063f2fde38b14610218576100c2565b80637e1c0c09146101825780638da5cb5b146101975780638f32d59b146101b9576100c2565b8063055ad42e146100c7578063135f8aa7146100f2578063380d831b14610112578063518ab2a81461012957806361fd6b721461014b578063715018a61461016d575b600080fd5b3480156100d357600080fd5b506100dc610238565b6040516100e99190610bfe565b60405180910390f35b3480156100fe57600080fd5b506100dc61010d366004610a38565b610250565b34801561011e57600080fd5b506101276102b7565b005b34801561013557600080fd5b5061013e610453565b6040516100e99190610c0c565b34801561015757600080fd5b50610160610459565b6040516100e99190610aae565b34801561017957600080fd5b506101276104d6565b34801561018e57600080fd5b5061013e610521565b3480156101a357600080fd5b506101ac6105b3565b6040516100e99190610a81565b3480156101c557600080fd5b506101ce6105c2565b6040516100e99190610afc565b3480156101e757600080fd5b5061013e6105ec565b6101276101fe366004610a38565b6105f2565b34801561020f57600080fd5b5061013e61087f565b34801561022457600080fd5b506101276102333660046109ea565b6108d3565b6102406109c9565b61024b600654610250565b905090565b6102586109c9565b6007828154811061027957634e487b7160e01b600052603260045260246000fd5b906000526020600020906003020160405180606001604052908160008201548152602001600182015481526020016002820154815250509050919050565b6102bf610941565b6001600160a01b03166102d06105b3565b6001600160a01b0316146102ff5760405162461bcd60e51b81526004016102f690610b78565b60405180910390fd5b6005546001600160a01b031663a9059cbb6103186105b3565b6005546040516370a0823160e01b81526001600160a01b03909116906370a0823190610348903090600401610a81565b60206040518083038186803b15801561036057600080fd5b505afa158015610374573d6000803e3d6000fd5b505050506040513d601f19601f820116820180604052508101906103989190610a50565b6040518363ffffffff1660e01b81526004016103b5929190610a95565b602060405180830381600087803b1580156103cf57600080fd5b505af11580156103e3573d6000803e3d6000fd5b505050506040513d601f19601f820116820180604052508101906104079190610a18565b61041057600080fd5b6104186105b3565b6001600160a01b03166108fc479081150290604051600060405180830381858888f19350505050158015610450573d6000803e3d6000fd5b50565b60025490565b60606007805480602002602001604051908101604052809291908181526020016000905b828210156104cd578382906000526020600020906003020160405180606001604052908160008201548152602001600182015481526020016002820154815250508152602001906001019061047d565b50505050905090565b6104de610941565b6001600160a01b03166104ef6105b3565b6001600160a01b0316146105155760405162461bcd60e51b81526004016102f690610b78565b61051f6000610945565b565b600061024b600560009054906101000a90046001600160a01b03166001600160a01b03166318160ddd6040518163ffffffff1660e01b815260040160206040518083038186803b15801561057457600080fd5b505afa158015610588573d6000803e3d6000fd5b505050506040513d601f19601f820116820180604052508101906105ac9190610a50565b6012610995565b6000546001600160a01b031690565b60006105cc6105b3565b6001600160a01b03166105dd610941565b6001600160a01b031614905090565b60015490565b806105fe600654610250565b6020015161060c9034610c2d565b146106295760405162461bcd60e51b81526004016102f690610bcf565b610632816109b5565b61063d600654610250565b51111561065c5760405162461bcd60e51b81526004016102f690610b4d565b610665816109b5565b6005546040516370a0823160e01b81526001600160a01b03909116906370a0823190610695903090600401610a81565b60206040518083038186803b1580156106ad57600080fd5b505afa1580156106c1573d6000803e3d6000fd5b505050506040513d601f19601f820116820180604052508101906106e59190610a50565b10156107035760405162461bcd60e51b81526004016102f690610bad565b6005546001600160a01b031663a9059cbb61071c610941565b610725846109b5565b6040518363ffffffff1660e01b8152600401610742929190610a95565b602060405180830381600087803b15801561075c57600080fd5b505af1158015610770573d6000803e3d6000fd5b505050506040513d601f19601f820116820180604052508101906107949190610a18565b61079d57600080fd5b80600260008282546107af9190610c15565b92505081905550806007600654815481106107da57634e487b7160e01b600052603260045260246000fd5b906000526020600020906003020160000160008282546107fa9190610d80565b92505081905550600061080e600654610250565b511161082a576006805490600061082483610d97565b91905055505b610835600654610250565b602001516001557f5e5e995ce3133561afceaa51a9a154d5db228cd7525d34df5185582c18d3df09610865610941565b82604051610874929190610a95565b60405180910390a150565b60055460009061024b906001600160a01b03166370a0823161089f610941565b6040518263ffffffff1660e01b81526004016108bb9190610a81565b60206040518083038186803b15801561057457600080fd5b6108db610941565b6001600160a01b03166108ec6105b3565b6001600160a01b0316146109125760405162461bcd60e51b81526004016102f690610b78565b6001600160a01b0381166109385760405162461bcd60e51b81526004016102f690610b07565b61045081610945565b3390565b600080546001600160a01b038381166001600160a01b0319831681178455604051919092169283917f8be0079c531659141344cd1fd0a4f28419497f9722a3daafe3b4186f6b6457e09190a35050565b60006109a282600a610c93565b6109ac9084610c2d565b90505b92915050565b60006109af82670de0b6b3a7640000610d61565b60405180606001604052806000815260200160008152602001600081525090565b6000602082840312156109fb578081fd5b81356001600160a01b0381168114610a11578182fd5b9392505050565b600060208284031215610a29578081fd5b81518015158114610a11578182fd5b600060208284031215610a49578081fd5b5035919050565b600060208284031215610a61578081fd5b5051919050565b8051825260208082015190830152604090810151910152565b6001600160a01b0391909116815260200190565b6001600160a01b03929092168252602082015260400190565b6020808252825182820181905260009190848201906040850190845b81811015610af057610add838551610a68565b9284019260609290920191600101610aca565b50909695505050505050565b901515815260200190565b60208082526026908201527f4f776e61626c653a206e6577206f776e657220697320746865207a65726f206160408201526564647265737360d01b606082015260800190565b6020808252601190820152704572726f72206c6f772062616c616e636560781b604082015260600190565b6020808252818101527f4f776e61626c653a2063616c6c6572206973206e6f7420746865206f776e6572604082015260600190565b60208082526008908201526714dbdb19081bdd5d60c21b604082015260600190565b60208082526015908201527408ae4e4dee440ecc2d8eaca40dcdee840dac2e8c6d605b1b604082015260600190565b606081016109af8284610a68565b90815260200190565b60008219821115610c2857610c28610db2565b500190565b600082610c4857634e487b7160e01b81526012600452602481fd5b500490565b80825b6001808611610c5f5750610c8a565b818704821115610c7157610c71610db2565b80861615610c7e57918102915b9490941c938002610c50565b94509492505050565b60006109ac6000198484600082610cac57506001610a11565b81610cb957506000610a11565b8160018114610ccf5760028114610cd957610d06565b6001915050610a11565b60ff841115610cea57610cea610db2565b6001841b915084821115610d0057610d00610db2565b50610a11565b5060208310610133831016604e8410600b8410161715610d39575081810a83811115610d3457610d34610db2565b610a11565b610d468484846001610c4d565b808604821115610d5857610d58610db2565b02949350505050565b6000816000190483118215151615610d7b57610d7b610db2565b500290565b600082821015610d9257610d92610db2565b500390565b6000600019821415610dab57610dab610db2565b5060010190565b634e487b7160e01b600052601160045260246000fdfea264697066735822122059e0fa8537d9000ff1025942568cd795f7aa11106b548e3526184581dd06054c64736f6c63430008000033",
    "sourcePath": "/Users/lscofield/Documents/Projects/Cursos/Metadapp/walldapp/contracts/MetaDappTokenSale.sol",
    "compiler": {
        "name": "solc",
        "version": "0.8.0+commit.c7dfd78e"
    },
    "functionHashes": {
        "__phases()": "61fd6b72",
        "__tokenPrice()": "9dedf2e6",
        "__tokens()": "e0509151",
        "buy(uint256)": "d96a094a",
        "currentPhase()": "055ad42e",
        "endSale()": "380d831b",
        "isOwner()": "8f32d59b",
        "owner()": "8da5cb5b",
        "phase(uint256)": "135f8aa7",
        "renounceOwnership()": "715018a6",
        "tokensSold()": "518ab2a8",
        "totalTokens()": "7e1c0c09",
        "transferOwnership(address)": "f2fde38b"
    },
    "gasEstimates": {
        "creation": {
            "codeDepositCost": "716400",
            "executionCost": "infinite",
            "totalCost": "infinite"
        },
        "external": {
            "__phases()": "infinite",
            "__tokenPrice()": "1050",
            "__tokens()": "infinite",
            "buy(uint256)": "infinite",
            "currentPhase()": "infinite",
            "endSale()": "infinite",
            "isOwner()": "1222",
            "owner()": "1115",
            "phase(uint256)": "3927",
            "renounceOwnership()": "23615",
            "tokensSold()": "1095",
            "totalTokens()": "infinite",
            "transferOwnership(address)": "23752"
        },
        "internal": {
            "__amount(uint256)": "127",
            "__unAmount(uint256,uint256)": "infinite"
        }
    }
}