{
  "contractName": "MetaDapp",
  "abi": [
    {
      "inputs": [
        {
          "internalType": "address",
          "name": "_token",
          "type": "address"
        }
      ],
      "stateMutability": "nonpayable",
      "type": "constructor"
    },
    {
      "anonymous": false,
      "inputs": [
        {
          "indexed": true,
          "internalType": "address",
          "name": "previousOwner",
          "type": "address"
        },
        {
          "indexed": true,
          "internalType": "address",
          "name": "newOwner",
          "type": "address"
        }
      ],
      "name": "OwnershipTransferred",
      "type": "event"
    },
    {
      "anonymous": false,
      "inputs": [
        {
          "indexed": true,
          "internalType": "address",
          "name": "owner",
          "type": "address"
        },
        {
          "indexed": false,
          "internalType": "string",
          "name": "name",
          "type": "string"
        },
        {
          "indexed": false,
          "internalType": "uint256",
          "name": "price",
          "type": "uint256"
        }
      ],
      "name": "ProductAdded",
      "type": "event"
    },
    {
      "anonymous": false,
      "inputs": [
        {
          "indexed": true,
          "internalType": "address",
          "name": "user",
          "type": "address"
        },
        {
          "indexed": false,
          "internalType": "address",
          "name": "owner",
          "type": "address"
        },
        {
          "indexed": false,
          "internalType": "uint256",
          "name": "price",
          "type": "uint256"
        }
      ],
      "name": "ProductPurchased",
      "type": "event"
    },
    {
      "inputs": [],
      "name": "owner",
      "outputs": [
        {
          "internalType": "address",
          "name": "",
          "type": "address"
        }
      ],
      "stateMutability": "view",
      "type": "function",
      "constant": true
    },
    {
      "inputs": [],
      "name": "renounceOwnership",
      "outputs": [],
      "stateMutability": "nonpayable",
      "type": "function"
    },
    {
      "inputs": [
        {
          "internalType": "address",
          "name": "newOwner",
          "type": "address"
        }
      ],
      "name": "transferOwnership",
      "outputs": [],
      "stateMutability": "nonpayable",
      "type": "function"
    },
    {
      "inputs": [
        {
          "internalType": "address",
          "name": "",
          "type": "address"
        }
      ],
      "name": "users",
      "outputs": [
        {
          "internalType": "string",
          "name": "dataHash",
          "type": "string"
        },
        {
          "internalType": "bool",
          "name": "updated",
          "type": "bool"
        },
        {
          "internalType": "uint256",
          "name": "total_products",
          "type": "uint256"
        }
      ],
      "stateMutability": "view",
      "type": "function",
      "constant": true
    },
    {
      "inputs": [
        {
          "internalType": "uint256",
          "name": "percent",
          "type": "uint256"
        }
      ],
      "name": "setSecureAddPercent",
      "outputs": [],
      "stateMutability": "nonpayable",
      "type": "function"
    },
    {
      "inputs": [
        {
          "internalType": "uint256",
          "name": "_amount",
          "type": "uint256"
        }
      ],
      "name": "__percentValue",
      "outputs": [
        {
          "internalType": "uint256",
          "name": "",
          "type": "uint256"
        }
      ],
      "stateMutability": "view",
      "type": "function",
      "constant": true
    },
    {
      "inputs": [
        {
          "internalType": "string",
          "name": "name",
          "type": "string"
        },
        {
          "internalType": "string",
          "name": "dataHash",
          "type": "string"
        },
        {
          "internalType": "string",
          "name": "section",
          "type": "string"
        },
        {
          "internalType": "uint256",
          "name": "price",
          "type": "uint256"
        }
      ],
      "name": "addProduct",
      "outputs": [],
      "stateMutability": "nonpayable",
      "type": "function"
    },
    {
      "inputs": [
        {
          "internalType": "uint256",
          "name": "product_id",
          "type": "uint256"
        },
        {
          "internalType": "uint256",
          "name": "price",
          "type": "uint256"
        }
      ],
      "name": "updateProductPrice",
      "outputs": [],
      "stateMutability": "nonpayable",
      "type": "function"
    },
    {
      "inputs": [
        {
          "internalType": "string",
          "name": "dataHash",
          "type": "string"
        }
      ],
      "name": "updateUserContact",
      "outputs": [],
      "stateMutability": "nonpayable",
      "type": "function"
    },
    {
      "inputs": [
        {
          "internalType": "uint256",
          "name": "product_id",
          "type": "uint256"
        }
      ],
      "name": "buyProduct",
      "outputs": [],
      "stateMutability": "nonpayable",
      "type": "function"
    },
    {
      "inputs": [],
      "name": "totalUsers",
      "outputs": [
        {
          "internalType": "uint256",
          "name": "",
          "type": "uint256"
        }
      ],
      "stateMutability": "view",
      "type": "function",
      "constant": true
    },
    {
      "inputs": [],
      "name": "getProducts",
      "outputs": [
        {
          "components": [
            {
              "internalType": "string",
              "name": "name",
              "type": "string"
            },
            {
              "internalType": "string",
              "name": "dataHash",
              "type": "string"
            },
            {
              "internalType": "string",
              "name": "section",
              "type": "string"
            },
            {
              "internalType": "uint256",
              "name": "price",
              "type": "uint256"
            },
            {
              "internalType": "address",
              "name": "owner",
              "type": "address"
            },
            {
              "internalType": "address",
              "name": "reserved_by",
              "type": "address"
            }
          ],
          "internalType": "struct MetaDapp.Product[]",
          "name": "",
          "type": "tuple[]"
        }
      ],
      "stateMutability": "view",
      "type": "function",
      "constant": true
    },
    {
      "inputs": [
        {
          "internalType": "uint256",
          "name": "product_id",
          "type": "uint256"
        }
      ],
      "name": "getProduct",
      "outputs": [
        {
          "components": [
            {
              "internalType": "string",
              "name": "name",
              "type": "string"
            },
            {
              "internalType": "string",
              "name": "dataHash",
              "type": "string"
            },
            {
              "internalType": "string",
              "name": "section",
              "type": "string"
            },
            {
              "internalType": "uint256",
              "name": "price",
              "type": "uint256"
            },
            {
              "internalType": "address",
              "name": "owner",
              "type": "address"
            },
            {
              "internalType": "address",
              "name": "reserved_by",
              "type": "address"
            }
          ],
          "internalType": "struct MetaDapp.Product",
          "name": "",
          "type": "tuple"
        }
      ],
      "stateMutability": "view",
      "type": "function",
      "constant": true
    },
    {
      "inputs": [
        {
          "internalType": "address",
          "name": "userAddress",
          "type": "address"
        }
      ],
      "name": "getUser",
      "outputs": [
        {
          "components": [
            {
              "internalType": "string",
              "name": "dataHash",
              "type": "string"
            },
            {
              "internalType": "bool",
              "name": "updated",
              "type": "bool"
            },
            {
              "internalType": "uint256",
              "name": "total_products",
              "type": "uint256"
            },
            {
              "internalType": "uint256[]",
              "name": "products",
              "type": "uint256[]"
            }
          ],
          "internalType": "struct MetaDapp.User",
          "name": "",
          "type": "tuple"
        }
      ],
      "stateMutability": "view",
      "type": "function",
      "constant": true
    },
    {
      "inputs": [
        {
          "internalType": "address payable",
          "name": "account",
          "type": "address"
        }
      ],
      "name": "withdrawBNB",
      "outputs": [],
      "stateMutability": "nonpayable",
      "type": "function"
    },
    {
      "inputs": [
        {
          "internalType": "address",
          "name": "to",
          "type": "address"
        },
        {
          "internalType": "uint256",
          "name": "amount",
          "type": "uint256"
        }
      ],
      "name": "withdraw",
      "outputs": [],
      "stateMutability": "nonpayable",
      "type": "function"
    }
  ],
  "bytecode": "0x608060405260056001556000600260006101000a81548173ffffffffffffffffffffffffffffffffffffffff021916908373ffffffffffffffffffffffffffffffffffffffff1602179055503480156200005857600080fd5b5060405162002b7a38038062002b7a83398181016040528101906200007e9190620001d1565b6200009e62000092620000ee60201b60201c565b620000f660201b60201c565b80600360006101000a81548173ffffffffffffffffffffffffffffffffffffffff021916908373ffffffffffffffffffffffffffffffffffffffff1602179055506000600681905550506200024b565b600033905090565b60008060009054906101000a900473ffffffffffffffffffffffffffffffffffffffff169050816000806101000a81548173ffffffffffffffffffffffffffffffffffffffff021916908373ffffffffffffffffffffffffffffffffffffffff1602179055508173ffffffffffffffffffffffffffffffffffffffff168173ffffffffffffffffffffffffffffffffffffffff167f8be0079c531659141344cd1fd0a4f28419497f9722a3daafe3b4186f6b6457e060405160405180910390a35050565b600081519050620001cb8162000231565b92915050565b600060208284031215620001e457600080fd5b6000620001f484828501620001ba565b91505092915050565b60006200020a8262000211565b9050919050565b600073ffffffffffffffffffffffffffffffffffffffff82169050919050565b6200023c81620001fd565b81146200024857600080fd5b50565b61291f806200025b6000396000f3fe608060405234801561001057600080fd5b50600436106101005760003560e01c80639c3bddb211610097578063c29b2f2011610066578063c29b2f2014610299578063d43ca177146102b7578063f2fde38b146102d3578063f3fef3a3146102ef57610100565b80639c3bddb2146101fd578063a87430ba14610219578063b9db15b41461024b578063bff1f9e11461027b57610100565b806372609471116100d3578063726094711461018b5780638165fed5146101a75780638642269e146101c35780638da5cb5b146101df57610100565b80633e42d543146101055780635d6b601d146101215780636f77926b14610151578063715018a614610181575b600080fd5b61011f600480360381019061011a9190611b6c565b61030b565b005b61013b60048036038101906101369190611c58565b610420565b60405161014891906124a2565b60405180910390f35b61016b60048036038101906101669190611ab5565b610443565b6040516101789190612480565b60405180910390f35b6101896105ab565b005b6101a560048036038101906101a09190611ade565b6105bf565b005b6101c160048036038101906101bc9190611bad565b610641565b005b6101dd60048036038101906101d89190611c58565b61086e565b005b6101e7610aed565b6040516101f4919061226a565b60405180910390f35b61021760048036038101906102129190611caa565b610b16565b005b610233600480360381019061022e9190611ab5565b610cbb565b60405161024293929190612330565b60405180910390f35b61026560048036038101906102609190611c58565b610d7a565b604051610272919061245e565b60405180910390f35b610283611048565b60405161029091906124a2565b60405180910390f35b6102a1611052565b6040516102ae919061230e565b60405180910390f35b6102d160048036038101906102cc9190611c58565b61131d565b005b6102ed60048036038101906102e89190611ab5565b61132f565b005b61030960048036038101906103049190611b07565b6113b3565b005b600260009054906101000a900473ffffffffffffffffffffffffffffffffffffffff1673ffffffffffffffffffffffffffffffffffffffff1661034c611477565b73ffffffffffffffffffffffffffffffffffffffff16141561036d57600080fd5b60006005600061037b611477565b73ffffffffffffffffffffffffffffffffffffffff1673ffffffffffffffffffffffffffffffffffffffff1681526020019081526020016000209050818160000190805190602001906103cf9291906118b5565b508060010160009054906101000a900460ff166103ff57600660008154809291906103f990612777565b91905055505b60018160010160006101000a81548160ff0219169083151502179055505050565b6000606482600154610432919061264f565b61043c919061261e565b9050919050565b61044b61193b565b600560008373ffffffffffffffffffffffffffffffffffffffff1673ffffffffffffffffffffffffffffffffffffffff1681526020019081526020016000206040518060800160405290816000820180546104a590612745565b80601f01602080910402602001604051908101604052809291908181526020018280546104d190612745565b801561051e5780601f106104f35761010080835404028352916020019161051e565b820191906000526020600020905b81548152906001019060200180831161050157829003601f168201915b505050505081526020016001820160009054906101000a900460ff16151515158152602001600282015481526020016003820180548060200260200160405190810160405280929190818152602001828054801561059b57602002820191906000526020600020905b815481526020019060010190808311610587575b5050505050815250509050919050565b6105b361147f565b6105bd60006114fd565b565b6105c761147f565b60008173ffffffffffffffffffffffffffffffffffffffff16476040516105ed90612255565b60006040518083038185875af1925050503d806000811461062a576040519150601f19603f3d011682016040523d82523d6000602084013e61062f565b606091505b505090508061063d57600080fd5b5050565b6106633061065661065184610420565b6115c1565b61065e611477565b6115de565b60046040518060c0016040528086815260200185815260200184815260200161068b846115c1565b8152602001610698611477565b73ffffffffffffffffffffffffffffffffffffffff168152602001600260009054906101000a900473ffffffffffffffffffffffffffffffffffffffff1673ffffffffffffffffffffffffffffffffffffffff16815250908060018154018082558091505060019003906000526020600020906006020160009091909190915060008201518160000190805190602001906107349291906118b5565b5060208201518160010190805190602001906107519291906118b5565b50604082015181600201908051906020019061076e9291906118b5565b506060820151816003015560808201518160040160006101000a81548173ffffffffffffffffffffffffffffffffffffffff021916908373ffffffffffffffffffffffffffffffffffffffff16021790555060a08201518160050160006101000a81548173ffffffffffffffffffffffffffffffffffffffff021916908373ffffffffffffffffffffffffffffffffffffffff1602179055505050610811611477565b73ffffffffffffffffffffffffffffffffffffffff167f71e4d22df116fdc915c131ee73a1b2033055d24fda3387bc49fed0c5f15a51eb85610852846115c1565b60405161086092919061236e565b60405180910390a250505050565b6000600482815481106108aa577f4e487b7100000000000000000000000000000000000000000000000000000000600052603260045260246000fd5b906000526020600020906006020190508060040160009054906101000a900473ffffffffffffffffffffffffffffffffffffffff1673ffffffffffffffffffffffffffffffffffffffff166108fd611477565b73ffffffffffffffffffffffffffffffffffffffff161415610954576040517f08c379a000000000000000000000000000000000000000000000000000000000815260040161094b906123be565b60405180910390fd5b61098e8160040160009054906101000a900473ffffffffffffffffffffffffffffffffffffffff168260030154610989611477565b6115de565b60006005600061099c611477565b73ffffffffffffffffffffffffffffffffffffffff1673ffffffffffffffffffffffffffffffffffffffff168152602001908152602001600020905060018160020160008282546109ed91906125c8565b9250508190555080600301839080600181540180825580915050600190039060005260206000200160009091909190915055610a27611477565b8260050160006101000a81548173ffffffffffffffffffffffffffffffffffffffff021916908373ffffffffffffffffffffffffffffffffffffffff160217905550610a71611477565b73ffffffffffffffffffffffffffffffffffffffff167f96ed2ea4d67ab6369f0e0da43454549a60ae55af2704de2bdc1cdc0221af01e88360040160009054906101000a900473ffffffffffffffffffffffffffffffffffffffff168460030154604051610ae09291906122e5565b60405180910390a2505050565b60008060009054906101000a900473ffffffffffffffffffffffffffffffffffffffff16905090565b600260009054906101000a900473ffffffffffffffffffffffffffffffffffffffff1673ffffffffffffffffffffffffffffffffffffffff16610b57611477565b73ffffffffffffffffffffffffffffffffffffffff161415610b7857600080fd5b600060048381548110610bb4577f4e487b7100000000000000000000000000000000000000000000000000000000600052603260045260246000fd5b906000526020600020906006020190508060040160009054906101000a900473ffffffffffffffffffffffffffffffffffffffff1673ffffffffffffffffffffffffffffffffffffffff16610c07611477565b73ffffffffffffffffffffffffffffffffffffffff1614610c2757600080fd5b600260009054906101000a900473ffffffffffffffffffffffffffffffffffffffff1673ffffffffffffffffffffffffffffffffffffffff168160050160009054906101000a900473ffffffffffffffffffffffffffffffffffffffff1673ffffffffffffffffffffffffffffffffffffffff1614610ca557600080fd5b610cae826115c1565b8160030181905550505050565b6005602052806000526040600020600091509050806000018054610cde90612745565b80601f0160208091040260200160405190810160405280929190818152602001828054610d0a90612745565b8015610d575780601f10610d2c57610100808354040283529160200191610d57565b820191906000526020600020905b815481529060010190602001808311610d3a57829003601f168201915b5050505050908060010160009054906101000a900460ff16908060020154905083565b610d82611965565b60048281548110610dbc577f4e487b7100000000000000000000000000000000000000000000000000000000600052603260045260246000fd5b90600052602060002090600602016040518060c0016040529081600082018054610de590612745565b80601f0160208091040260200160405190810160405280929190818152602001828054610e1190612745565b8015610e5e5780601f10610e3357610100808354040283529160200191610e5e565b820191906000526020600020905b815481529060010190602001808311610e4157829003601f168201915b50505050508152602001600182018054610e7790612745565b80601f0160208091040260200160405190810160405280929190818152602001828054610ea390612745565b8015610ef05780601f10610ec557610100808354040283529160200191610ef0565b820191906000526020600020905b815481529060010190602001808311610ed357829003601f168201915b50505050508152602001600282018054610f0990612745565b80601f0160208091040260200160405190810160405280929190818152602001828054610f3590612745565b8015610f825780601f10610f5757610100808354040283529160200191610f82565b820191906000526020600020905b815481529060010190602001808311610f6557829003601f168201915b50505050508152602001600382015481526020016004820160009054906101000a900473ffffffffffffffffffffffffffffffffffffffff1673ffffffffffffffffffffffffffffffffffffffff1673ffffffffffffffffffffffffffffffffffffffff1681526020016005820160009054906101000a900473ffffffffffffffffffffffffffffffffffffffff1673ffffffffffffffffffffffffffffffffffffffff1673ffffffffffffffffffffffffffffffffffffffff16815250509050919050565b6000600654905090565b60606004805480602002602001604051908101604052809291908181526020016000905b8282101561131457838290600052602060002090600602016040518060c00160405290816000820180546110a990612745565b80601f01602080910402602001604051908101604052809291908181526020018280546110d590612745565b80156111225780601f106110f757610100808354040283529160200191611122565b820191906000526020600020905b81548152906001019060200180831161110557829003601f168201915b5050505050815260200160018201805461113b90612745565b80601f016020809104026020016040519081016040528092919081815260200182805461116790612745565b80156111b45780601f10611189576101008083540402835291602001916111b4565b820191906000526020600020905b81548152906001019060200180831161119757829003601f168201915b505050505081526020016002820180546111cd90612745565b80601f01602080910402602001604051908101604052809291908181526020018280546111f990612745565b80156112465780601f1061121b57610100808354040283529160200191611246565b820191906000526020600020905b81548152906001019060200180831161122957829003601f168201915b50505050508152602001600382015481526020016004820160009054906101000a900473ffffffffffffffffffffffffffffffffffffffff1673ffffffffffffffffffffffffffffffffffffffff1673ffffffffffffffffffffffffffffffffffffffff1681526020016005820160009054906101000a900473ffffffffffffffffffffffffffffffffffffffff1673ffffffffffffffffffffffffffffffffffffffff1673ffffffffffffffffffffffffffffffffffffffff168152505081526020019060010190611076565b50505050905090565b61132561147f565b8060018190555050565b61133761147f565b600073ffffffffffffffffffffffffffffffffffffffff168173ffffffffffffffffffffffffffffffffffffffff1614156113a7576040517f08c379a000000000000000000000000000000000000000000000000000000000815260040161139e9061239e565b60405180910390fd5b6113b0816114fd565b50565b6113bb61147f565b600360009054906101000a900473ffffffffffffffffffffffffffffffffffffffff1673ffffffffffffffffffffffffffffffffffffffff1663a9059cbb83836040518363ffffffff1660e01b81526004016114189291906122e5565b602060405180830381600087803b15801561143257600080fd5b505af1158015611446573d6000803e3d6000fd5b505050506040513d601f19601f8201168201806040525081019061146a9190611b43565b61147357600080fd5b5050565b600033905090565b611487611477565b73ffffffffffffffffffffffffffffffffffffffff166114a5610aed565b73ffffffffffffffffffffffffffffffffffffffff16146114fb576040517f08c379a00000000000000000000000000000000000000000000000000000000081526004016114f2906123de565b60405180910390fd5b565b60008060009054906101000a900473ffffffffffffffffffffffffffffffffffffffff169050816000806101000a81548173ffffffffffffffffffffffffffffffffffffffff021916908373ffffffffffffffffffffffffffffffffffffffff1602179055508173ffffffffffffffffffffffffffffffffffffffff168173ffffffffffffffffffffffffffffffffffffffff167f8be0079c531659141344cd1fd0a4f28419497f9722a3daafe3b4186f6b6457e060405160405180910390a35050565b6000670de0b6b3a7640000826115d7919061264f565b9050919050565b600360009054906101000a900473ffffffffffffffffffffffffffffffffffffffff1673ffffffffffffffffffffffffffffffffffffffff166370a08231826040518263ffffffff1660e01b8152600401611639919061226a565b60206040518083038186803b15801561165157600080fd5b505afa158015611665573d6000803e3d6000fd5b505050506040513d601f19601f820116820180604052508101906116899190611c81565b8211156116cb576040517f08c379a00000000000000000000000000000000000000000000000000000000081526004016116c2906123fe565b60405180910390fd5b81600360009054906101000a900473ffffffffffffffffffffffffffffffffffffffff1673ffffffffffffffffffffffffffffffffffffffff1663dd62ed3e83306040518363ffffffff1660e01b8152600401611729929190612285565b60206040518083038186803b15801561174157600080fd5b505afa158015611755573d6000803e3d6000fd5b505050506040513d601f19601f820116820180604052508101906117799190611c81565b10156117ba576040517f08c379a00000000000000000000000000000000000000000000000000000000081526004016117b19061241e565b60405180910390fd5b6000600360009054906101000a900473ffffffffffffffffffffffffffffffffffffffff1673ffffffffffffffffffffffffffffffffffffffff166323b872dd8386866040518463ffffffff1660e01b815260040161181b939291906122ae565b602060405180830381600087803b15801561183557600080fd5b505af1158015611849573d6000803e3d6000fd5b505050506040513d601f19601f8201168201806040525081019061186d9190611b43565b9050806118af576040517f08c379a00000000000000000000000000000000000000000000000000000000081526004016118a69061243e565b60405180910390fd5b50505050565b8280546118c190612745565b90600052602060002090601f0160209004810192826118e3576000855561192a565b82601f106118fc57805160ff191683800117855561192a565b8280016001018555821561192a579182015b8281111561192957825182559160200191906001019061190e565b5b50905061193791906119c7565b5090565b60405180608001604052806060815260200160001515815260200160008152602001606081525090565b6040518060c0016040528060608152602001606081526020016060815260200160008152602001600073ffffffffffffffffffffffffffffffffffffffff168152602001600073ffffffffffffffffffffffffffffffffffffffff1681525090565b5b808211156119e05760008160009055506001016119c8565b5090565b60006119f76119f2846124ee565b6124bd565b905082815260208101848484011115611a0f57600080fd5b611a1a848285612703565b509392505050565b600081359050611a318161288d565b92915050565b600081359050611a46816128a4565b92915050565b600081519050611a5b816128bb565b92915050565b600082601f830112611a7257600080fd5b8135611a828482602086016119e4565b91505092915050565b600081359050611a9a816128d2565b92915050565b600081519050611aaf816128d2565b92915050565b600060208284031215611ac757600080fd5b6000611ad584828501611a22565b91505092915050565b600060208284031215611af057600080fd5b6000611afe84828501611a37565b91505092915050565b60008060408385031215611b1a57600080fd5b6000611b2885828601611a22565b9250506020611b3985828601611a8b565b9150509250929050565b600060208284031215611b5557600080fd5b6000611b6384828501611a4c565b91505092915050565b600060208284031215611b7e57600080fd5b600082013567ffffffffffffffff811115611b9857600080fd5b611ba484828501611a61565b91505092915050565b60008060008060808587031215611bc357600080fd5b600085013567ffffffffffffffff811115611bdd57600080fd5b611be987828801611a61565b945050602085013567ffffffffffffffff811115611c0657600080fd5b611c1287828801611a61565b935050604085013567ffffffffffffffff811115611c2f57600080fd5b611c3b87828801611a61565b9250506060611c4c87828801611a8b565b91505092959194509250565b600060208284031215611c6a57600080fd5b6000611c7884828501611a8b565b91505092915050565b600060208284031215611c9357600080fd5b6000611ca184828501611aa0565b91505092915050565b60008060408385031215611cbd57600080fd5b6000611ccb85828601611a8b565b9250506020611cdc85828601611a8b565b9150509250929050565b6000611cf2838361209f565b905092915050565b6000611d068383612237565b60208301905092915050565b611d1b816126a9565b82525050565b611d2a816126a9565b82525050565b6000611d3b8261253e565b611d458185612579565b935083602082028501611d578561251e565b8060005b85811015611d935784840389528151611d748582611ce6565b9450611d7f8361255f565b925060208a01995050600181019050611d5b565b50829750879550505050505092915050565b6000611db082612549565b611dba818561258a565b9350611dc58361252e565b8060005b83811015611df6578151611ddd8882611cfa565b9750611de88361256c565b925050600181019050611dc9565b5085935050505092915050565b611e0c816126cd565b82525050565b611e1b816126cd565b82525050565b6000611e2c82612554565b611e3681856125a6565b9350611e46818560208601612712565b611e4f8161287c565b840191505092915050565b6000611e6582612554565b611e6f81856125b7565b9350611e7f818560208601612712565b611e888161287c565b840191505092915050565b6000611ea06026836125b7565b91507f4f776e61626c653a206e6577206f776e657220697320746865207a65726f206160008301527f64647265737300000000000000000000000000000000000000000000000000006020830152604082019050919050565b6000611f066020836125b7565b91507f596f752063616e6e6f742062757920796f7572206f776e2070726f64756374736000830152602082019050919050565b6000611f466020836125b7565b91507f4f776e61626c653a2063616c6c6572206973206e6f7420746865206f776e65726000830152602082019050919050565b6000611f866022836125b7565b91507f496e7375666963656e7420746f6b656e7320746f206d616b65207472616e736660008301527f65720000000000000000000000000000000000000000000000000000000000006020830152604082019050919050565b6000611fec6024836125b7565b91507f496e7375666963656e7420616c6c6f77656e636520746f206d616b652072657360008301527f65727665000000000000000000000000000000000000000000000000000000006020830152604082019050919050565b600061205260008361259b565b9150600082019050919050565b600061206c6008836125b7565b91507f4e6f742073656e740000000000000000000000000000000000000000000000006000830152602082019050919050565b600060c08301600083015184820360008601526120bc8282611e21565b915050602083015184820360208601526120d68282611e21565b915050604083015184820360408601526120f08282611e21565b91505060608301516121056060860182612237565b5060808301516121186080860182611d12565b5060a083015161212b60a0860182611d12565b508091505092915050565b600060c08301600083015184820360008601526121538282611e21565b9150506020830151848203602086015261216d8282611e21565b915050604083015184820360408601526121878282611e21565b915050606083015161219c6060860182612237565b5060808301516121af6080860182611d12565b5060a08301516121c260a0860182611d12565b508091505092915050565b600060808301600083015184820360008601526121ea8282611e21565b91505060208301516121ff6020860182611e03565b5060408301516122126040860182612237565b506060830151848203606086015261222a8282611da5565b9150508091505092915050565b612240816126f9565b82525050565b61224f816126f9565b82525050565b600061226082612045565b9150819050919050565b600060208201905061227f6000830184611d21565b92915050565b600060408201905061229a6000830185611d21565b6122a76020830184611d21565b9392505050565b60006060820190506122c36000830186611d21565b6122d06020830185611d21565b6122dd6040830184612246565b949350505050565b60006040820190506122fa6000830185611d21565b6123076020830184612246565b9392505050565b600060208201905081810360008301526123288184611d30565b905092915050565b6000606082019050818103600083015261234a8186611e5a565b90506123596020830185611e12565b6123666040830184612246565b949350505050565b600060408201905081810360008301526123888185611e5a565b90506123976020830184612246565b9392505050565b600060208201905081810360008301526123b781611e93565b9050919050565b600060208201905081810360008301526123d781611ef9565b9050919050565b600060208201905081810360008301526123f781611f39565b9050919050565b6000602082019050818103600083015261241781611f79565b9050919050565b6000602082019050818103600083015261243781611fdf565b9050919050565b600060208201905081810360008301526124578161205f565b9050919050565b600060208201905081810360008301526124788184612136565b905092915050565b6000602082019050818103600083015261249a81846121cd565b905092915050565b60006020820190506124b76000830184612246565b92915050565b6000604051905081810181811067ffffffffffffffff821117156124e4576124e361284d565b5b8060405250919050565b600067ffffffffffffffff8211156125095761250861284d565b5b601f19601f8301169050602081019050919050565b6000819050602082019050919050565b6000819050602082019050919050565b600081519050919050565b600081519050919050565b600081519050919050565b6000602082019050919050565b6000602082019050919050565b600082825260208201905092915050565b600082825260208201905092915050565b600081905092915050565b600082825260208201905092915050565b600082825260208201905092915050565b60006125d3826126f9565b91506125de836126f9565b9250827fffffffffffffffffffffffffffffffffffffffffffffffffffffffffffffffff03821115612613576126126127c0565b5b828201905092915050565b6000612629826126f9565b9150612634836126f9565b925082612644576126436127ef565b5b828204905092915050565b600061265a826126f9565b9150612665836126f9565b9250817fffffffffffffffffffffffffffffffffffffffffffffffffffffffffffffffff048311821515161561269e5761269d6127c0565b5b828202905092915050565b60006126b4826126d9565b9050919050565b60006126c6826126d9565b9050919050565b60008115159050919050565b600073ffffffffffffffffffffffffffffffffffffffff82169050919050565b6000819050919050565b82818337600083830152505050565b60005b83811015612730578082015181840152602081019050612715565b8381111561273f576000848401525b50505050565b6000600282049050600182168061275d57607f821691505b602082108114156127715761277061281e565b5b50919050565b6000612782826126f9565b91507fffffffffffffffffffffffffffffffffffffffffffffffffffffffffffffffff8214156127b5576127b46127c0565b5b600182019050919050565b7f4e487b7100000000000000000000000000000000000000000000000000000000600052601160045260246000fd5b7f4e487b7100000000000000000000000000000000000000000000000000000000600052601260045260246000fd5b7f4e487b7100000000000000000000000000000000000000000000000000000000600052602260045260246000fd5b7f4e487b7100000000000000000000000000000000000000000000000000000000600052604160045260246000fd5b6000601f19601f8301169050919050565b612896816126a9565b81146128a157600080fd5b50565b6128ad816126bb565b81146128b857600080fd5b50565b6128c4816126cd565b81146128cf57600080fd5b50565b6128db816126f9565b81146128e657600080fd5b5056fea2646970667358221220e8e7b813f29b5ac6842db3b970eb58234d23e0af3e1bbd19ac3ce602d3ed3fd364736f6c63430008000033",
  "immutableReferences": {},
  "source": "// SPDX-License-Identifier: MIT\npragma solidity ^0.8.0;\n\nimport \"./Address.sol\";\nimport \"@openzeppelin/contracts/token/ERC20/IERC20.sol\";\nimport \"@openzeppelin/contracts/utils/math/SafeMath.sol\";\nimport \"@openzeppelin/contracts/access/Ownable.sol\";\n\ncontract MetaDapp is Ownable {\n\n    using Address for address;\n    using SafeMath for uint;\n    using SafeMath for uint256;\n\n    uint private secureAddPercent = 5;\n    address private noOne = address(0);\n    IERC20 private token;\n\n    struct User {\n        string dataHash;\n        bool updated;\n        uint total_products;\n        uint[] products;\n    }\n\n    struct Product {\n        string name;\n        string dataHash;\n        string section;\n        uint price;\n        address owner;\n        address reserved_by;\n    }\n\n    Product[] private products;\n    mapping(address => User) public users;\n\n    uint private _totalUsers;\n\n    event ProductPurchased(address indexed user, address owner, uint price);\n    event ProductAdded(address indexed owner, string name, uint price);\n\n    constructor(address _token){\n        token = IERC20(_token);\n        _totalUsers = 0;\n    }\n\n    function setSecureAddPercent(uint percent) external onlyOwner {\n        secureAddPercent = percent;\n    }\n\n    function getSecureAddPercent() private onlyOwner view returns(uint){\n        return secureAddPercent;\n    }\n\n    function __percentValue(uint _amount) public view returns(uint){\n        return (secureAddPercent * _amount) / 100;\n    }\n\n    function __amount(uint _amount) private pure returns(uint){\n        return _amount * (10 ** 18);\n    }\n\n    function addProduct(string memory name, \n                        string memory dataHash, \n                        string memory section, uint price) external {\n\n        transferTokens(address(this), __amount(__percentValue(price)), _msgSender());\n\n        products.push(Product(name, dataHash, section, __amount(price), _msgSender(), noOne));\n        emit ProductAdded(_msgSender(), name, __amount(price));\n    }\n\n    function transferTokens(address _owner, uint _price, address _buyer) private {\n        require(_price <= token.balanceOf(_buyer), 'Insuficent tokens to make transfer');\n        require(token.allowance(_buyer, address(this)) >= _price, 'Insuficent allowence to make reserve');\n\n        bool sent = token.transferFrom(_buyer, _owner, _price);\n        require(sent, 'Not sent');\n    }\n\n    function updateProductPrice(uint product_id, uint price) external {\n        require(_msgSender() != noOne);\n        Product storage product = products[product_id];\n        require(_msgSender() == product.owner);\n        require(product.reserved_by == noOne);\n        product.price = __amount(price);\n    }\n\n    function updateUserContact(string memory dataHash) external {\n        require(_msgSender() != noOne);\n        User storage user = users[_msgSender()];\n        user.dataHash = dataHash;\n\n        if(!user.updated)\n            _totalUsers++;\n\n        user.updated = true;\n    }\n\n    function buyProduct(uint product_id) external {\n        Product storage product = products[product_id];\n        require(_msgSender() != product.owner, 'You cannot buy your own products');\n        transferTokens(product.owner, product.price, _msgSender());\n        User storage buyer = users[_msgSender()];\n        buyer.total_products += 1;\n        buyer.products.push(product_id);\n        product.reserved_by = _msgSender();\n\n        emit ProductPurchased(_msgSender(), product.owner, product.price);\n    }\n\n    function totalUsers() external view returns (uint){\n        return _totalUsers;\n    }\n\n    function getProducts() external view returns(Product[] memory){\n      return products;\n    }\n\n    function getProduct(uint product_id) external view returns(Product memory){\n      return products[product_id];\n    }\n\n    function getUser(address userAddress) external view returns(User memory){\n      return users[userAddress];\n    }\n\n    function withdrawBNB(address payable account) external onlyOwner {\n        (bool success, ) = account.call{value: address(this).balance}(\"\");\n        require(success);\n    }\n\n    function withdraw(address to, uint256 amount) external onlyOwner{\n        require(token.transfer(to, amount));\n    }\n}",
  "sourcePath": "/Users/lscofield/Documents/Projects/Cursos/Metadapp/walldapp/contracts/MetaDapp.sol",
  "compiler": {
    "name": "solc",
    "version": "0.8.0+commit.c7dfd78e.Emscripten.clang"
  },
  "schemaVersion": "3.4.7",
  "updatedAt": "2022-08-11T21:18:25.544Z",
  "networkType": "ethereum",
  "devdoc": {
    "kind": "dev",
    "methods": {
      "owner()": {
        "details": "Returns the address of the current owner."
      },
      "renounceOwnership()": {
        "details": "Leaves the contract without owner. It will not be possible to call `onlyOwner` functions anymore. Can only be called by the current owner. NOTE: Renouncing ownership will leave the contract without an owner, thereby removing any functionality that is only available to the owner."
      },
      "transferOwnership(address)": {
        "details": "Transfers ownership of the contract to a new account (`newOwner`). Can only be called by the current owner."
      }
    },
    "version": 1
  },
  "userdoc": {
    "kind": "user",
    "methods": {},
    "version": 1
  }
}