{
  "contractName": "MetaDapp",
  "abi": [
    {
      "inputs": [
        {
          "internalType": "address",
          "name": "_token",
          "type": "address"
        }
      ],
      "stateMutability": "nonpayable",
      "type": "constructor"
    },
    {
      "anonymous": false,
      "inputs": [
        {
          "indexed": true,
          "internalType": "address",
          "name": "previousOwner",
          "type": "address"
        },
        {
          "indexed": true,
          "internalType": "address",
          "name": "newOwner",
          "type": "address"
        }
      ],
      "name": "OwnershipTransferred",
      "type": "event"
    },
    {
      "anonymous": false,
      "inputs": [
        {
          "indexed": true,
          "internalType": "address",
          "name": "owner",
          "type": "address"
        },
        {
          "indexed": false,
          "internalType": "string",
          "name": "name",
          "type": "string"
        },
        {
          "indexed": false,
          "internalType": "uint256",
          "name": "price",
          "type": "uint256"
        }
      ],
      "name": "ProductAdded",
      "type": "event"
    },
    {
      "anonymous": false,
      "inputs": [
        {
          "indexed": true,
          "internalType": "address",
          "name": "user",
          "type": "address"
        },
        {
          "indexed": false,
          "internalType": "address",
          "name": "owner",
          "type": "address"
        },
        {
          "indexed": false,
          "internalType": "uint256",
          "name": "price",
          "type": "uint256"
        }
      ],
      "name": "ProductPurchased",
      "type": "event"
    },
    {
      "inputs": [],
      "name": "owner",
      "outputs": [
        {
          "internalType": "address",
          "name": "",
          "type": "address"
        }
      ],
      "stateMutability": "view",
      "type": "function",
      "constant": true
    },
    {
      "inputs": [],
      "name": "renounceOwnership",
      "outputs": [],
      "stateMutability": "nonpayable",
      "type": "function"
    },
    {
      "inputs": [
        {
          "internalType": "address",
          "name": "newOwner",
          "type": "address"
        }
      ],
      "name": "transferOwnership",
      "outputs": [],
      "stateMutability": "nonpayable",
      "type": "function"
    },
    {
      "inputs": [
        {
          "internalType": "address",
          "name": "",
          "type": "address"
        }
      ],
      "name": "users",
      "outputs": [
        {
          "internalType": "string",
          "name": "dataHash",
          "type": "string"
        },
        {
          "internalType": "bool",
          "name": "updated",
          "type": "bool"
        },
        {
          "internalType": "uint256",
          "name": "total_products",
          "type": "uint256"
        }
      ],
      "stateMutability": "view",
      "type": "function",
      "constant": true
    },
    {
      "inputs": [
        {
          "internalType": "uint256",
          "name": "percent",
          "type": "uint256"
        }
      ],
      "name": "setSecureAddPercent",
      "outputs": [],
      "stateMutability": "nonpayable",
      "type": "function"
    },
    {
      "inputs": [
        {
          "internalType": "uint256",
          "name": "_amount",
          "type": "uint256"
        }
      ],
      "name": "__percentValue",
      "outputs": [
        {
          "internalType": "uint256",
          "name": "",
          "type": "uint256"
        }
      ],
      "stateMutability": "view",
      "type": "function",
      "constant": true
    },
    {
      "inputs": [
        {
          "internalType": "string",
          "name": "name",
          "type": "string"
        },
        {
          "internalType": "string",
          "name": "dataHash",
          "type": "string"
        },
        {
          "internalType": "string",
          "name": "section",
          "type": "string"
        },
        {
          "internalType": "uint256",
          "name": "price",
          "type": "uint256"
        }
      ],
      "name": "addProduct",
      "outputs": [],
      "stateMutability": "nonpayable",
      "type": "function"
    },
    {
      "inputs": [
        {
          "internalType": "uint256",
          "name": "product_id",
          "type": "uint256"
        },
        {
          "internalType": "uint256",
          "name": "price",
          "type": "uint256"
        }
      ],
      "name": "updateProductPrice",
      "outputs": [],
      "stateMutability": "nonpayable",
      "type": "function"
    },
    {
      "inputs": [
        {
          "internalType": "string",
          "name": "dataHash",
          "type": "string"
        }
      ],
      "name": "updateUserContact",
      "outputs": [],
      "stateMutability": "nonpayable",
      "type": "function"
    },
    {
      "inputs": [
        {
          "internalType": "uint256",
          "name": "product_id",
          "type": "uint256"
        }
      ],
      "name": "buyProduct",
      "outputs": [],
      "stateMutability": "nonpayable",
      "type": "function"
    },
    {
      "inputs": [],
      "name": "totalUsers",
      "outputs": [
        {
          "internalType": "uint256",
          "name": "",
          "type": "uint256"
        }
      ],
      "stateMutability": "view",
      "type": "function",
      "constant": true
    },
    {
      "inputs": [],
      "name": "getProducts",
      "outputs": [
        {
          "components": [
            {
              "internalType": "string",
              "name": "name",
              "type": "string"
            },
            {
              "internalType": "string",
              "name": "dataHash",
              "type": "string"
            },
            {
              "internalType": "string",
              "name": "section",
              "type": "string"
            },
            {
              "internalType": "uint256",
              "name": "price",
              "type": "uint256"
            },
            {
              "internalType": "address",
              "name": "owner",
              "type": "address"
            },
            {
              "internalType": "address",
              "name": "reserved_by",
              "type": "address"
            }
          ],
          "internalType": "struct MetaDapp.Product[]",
          "name": "",
          "type": "tuple[]"
        }
      ],
      "stateMutability": "view",
      "type": "function",
      "constant": true
    },
    {
      "inputs": [
        {
          "internalType": "uint256",
          "name": "product_id",
          "type": "uint256"
        }
      ],
      "name": "getProduct",
      "outputs": [
        {
          "components": [
            {
              "internalType": "string",
              "name": "name",
              "type": "string"
            },
            {
              "internalType": "string",
              "name": "dataHash",
              "type": "string"
            },
            {
              "internalType": "string",
              "name": "section",
              "type": "string"
            },
            {
              "internalType": "uint256",
              "name": "price",
              "type": "uint256"
            },
            {
              "internalType": "address",
              "name": "owner",
              "type": "address"
            },
            {
              "internalType": "address",
              "name": "reserved_by",
              "type": "address"
            }
          ],
          "internalType": "struct MetaDapp.Product",
          "name": "",
          "type": "tuple"
        }
      ],
      "stateMutability": "view",
      "type": "function",
      "constant": true
    },
    {
      "inputs": [
        {
          "internalType": "address",
          "name": "userAddress",
          "type": "address"
        }
      ],
      "name": "getUser",
      "outputs": [
        {
          "components": [
            {
              "internalType": "string",
              "name": "dataHash",
              "type": "string"
            },
            {
              "internalType": "bool",
              "name": "updated",
              "type": "bool"
            },
            {
              "internalType": "uint256",
              "name": "total_products",
              "type": "uint256"
            },
            {
              "internalType": "uint256[]",
              "name": "products",
              "type": "uint256[]"
            }
          ],
          "internalType": "struct MetaDapp.User",
          "name": "",
          "type": "tuple"
        }
      ],
      "stateMutability": "view",
      "type": "function",
      "constant": true
    },
    {
      "inputs": [
        {
          "internalType": "address payable",
          "name": "account",
          "type": "address"
        }
      ],
      "name": "withdrawBNB",
      "outputs": [],
      "stateMutability": "nonpayable",
      "type": "function"
    },
    {
      "inputs": [
        {
          "internalType": "address",
          "name": "to",
          "type": "address"
        },
        {
          "internalType": "uint256",
          "name": "amount",
          "type": "uint256"
        }
      ],
      "name": "withdraw",
      "outputs": [],
      "stateMutability": "nonpayable",
      "type": "function"
    }
  ],
  "bytecode": "0x608060405260056001556000600260006101000a81548173ffffffffffffffffffffffffffffffffffffffff021916908373ffffffffffffffffffffffffffffffffffffffff1602179055503480156200005857600080fd5b5060405162002d4038038062002d4083398181016040528101906200007e9190620001d1565b6200009e62000092620000ee60201b60201c565b620000f660201b60201c565b80600360006101000a81548173ffffffffffffffffffffffffffffffffffffffff021916908373ffffffffffffffffffffffffffffffffffffffff1602179055506000600681905550506200024b565b600033905090565b60008060009054906101000a900473ffffffffffffffffffffffffffffffffffffffff169050816000806101000a81548173ffffffffffffffffffffffffffffffffffffffff021916908373ffffffffffffffffffffffffffffffffffffffff1602179055508173ffffffffffffffffffffffffffffffffffffffff168173ffffffffffffffffffffffffffffffffffffffff167f8be0079c531659141344cd1fd0a4f28419497f9722a3daafe3b4186f6b6457e060405160405180910390a35050565b600081519050620001cb8162000231565b92915050565b600060208284031215620001e457600080fd5b6000620001f484828501620001ba565b91505092915050565b60006200020a8262000211565b9050919050565b600073ffffffffffffffffffffffffffffffffffffffff82169050919050565b6200023c81620001fd565b81146200024857600080fd5b50565b612ae5806200025b6000396000f3fe608060405234801561001057600080fd5b50600436106101005760003560e01c80639c3bddb211610097578063c29b2f2011610066578063c29b2f2014610299578063d43ca177146102b7578063f2fde38b146102d3578063f3fef3a3146102ef57610100565b80639c3bddb2146101fd578063a87430ba14610219578063b9db15b41461024b578063bff1f9e11461027b57610100565b806372609471116100d3578063726094711461018b5780638165fed5146101a75780638642269e146101c35780638da5cb5b146101df57610100565b80633e42d543146101055780635d6b601d146101215780636f77926b14610151578063715018a614610181575b600080fd5b61011f600480360381019061011a9190611d32565b61030b565b005b61013b60048036038101906101369190611e1e565b610420565b6040516101489190612668565b60405180910390f35b61016b60048036038101906101669190611c7b565b610443565b6040516101789190612646565b60405180910390f35b6101896105ab565b005b6101a560048036038101906101a09190611ca4565b610633565b005b6101c160048036038101906101bc9190611d73565b610729565b005b6101dd60048036038101906101d89190611e1e565b610956565b005b6101e7610bd5565b6040516101f49190612430565b60405180910390f35b61021760048036038101906102129190611e70565b610bfe565b005b610233600480360381019061022e9190611c7b565b610da3565b604051610242939291906124f6565b60405180910390f35b61026560048036038101906102609190611e1e565b610e62565b6040516102729190612624565b60405180910390f35b610283611130565b6040516102909190612668565b60405180910390f35b6102a161113a565b6040516102ae91906124d4565b60405180910390f35b6102d160048036038101906102cc9190611e1e565b611405565b005b6102ed60048036038101906102e89190611c7b565b61148b565b005b61030960048036038101906103049190611ccd565b611583565b005b600260009054906101000a900473ffffffffffffffffffffffffffffffffffffffff1673ffffffffffffffffffffffffffffffffffffffff1661034c6116bb565b73ffffffffffffffffffffffffffffffffffffffff16141561036d57600080fd5b60006005600061037b6116bb565b73ffffffffffffffffffffffffffffffffffffffff1673ffffffffffffffffffffffffffffffffffffffff1681526020019081526020016000209050818160000190805190602001906103cf929190611a7b565b508060010160009054906101000a900460ff166103ff57600660008154809291906103f99061293d565b91905055505b60018160010160006101000a81548160ff0219169083151502179055505050565b60006064826001546104329190612815565b61043c91906127e4565b9050919050565b61044b611b01565b600560008373ffffffffffffffffffffffffffffffffffffffff1673ffffffffffffffffffffffffffffffffffffffff1681526020019081526020016000206040518060800160405290816000820180546104a59061290b565b80601f01602080910402602001604051908101604052809291908181526020018280546104d19061290b565b801561051e5780601f106104f35761010080835404028352916020019161051e565b820191906000526020600020905b81548152906001019060200180831161050157829003601f168201915b505050505081526020016001820160009054906101000a900460ff16151515158152602001600282015481526020016003820180548060200260200160405190810160405280929190818152602001828054801561059b57602002820191906000526020600020905b815481526020019060010190808311610587575b5050505050815250509050919050565b6105b36116bb565b73ffffffffffffffffffffffffffffffffffffffff166105d1610bd5565b73ffffffffffffffffffffffffffffffffffffffff1614610627576040517f08c379a000000000000000000000000000000000000000000000000000000000815260040161061e906125a4565b60405180910390fd5b61063160006116c3565b565b61063b6116bb565b73ffffffffffffffffffffffffffffffffffffffff16610659610bd5565b73ffffffffffffffffffffffffffffffffffffffff16146106af576040517f08c379a00000000000000000000000000000000000000000000000000000000081526004016106a6906125a4565b60405180910390fd5b60008173ffffffffffffffffffffffffffffffffffffffff16476040516106d59061241b565b60006040518083038185875af1925050503d8060008114610712576040519150601f19603f3d011682016040523d82523d6000602084013e610717565b606091505b505090508061072557600080fd5b5050565b61074b3061073e61073984610420565b611787565b6107466116bb565b6117a4565b60046040518060c0016040528086815260200185815260200184815260200161077384611787565b81526020016107806116bb565b73ffffffffffffffffffffffffffffffffffffffff168152602001600260009054906101000a900473ffffffffffffffffffffffffffffffffffffffff1673ffffffffffffffffffffffffffffffffffffffff168152509080600181540180825580915050600190039060005260206000209060060201600090919091909150600082015181600001908051906020019061081c929190611a7b565b506020820151816001019080519060200190610839929190611a7b565b506040820151816002019080519060200190610856929190611a7b565b506060820151816003015560808201518160040160006101000a81548173ffffffffffffffffffffffffffffffffffffffff021916908373ffffffffffffffffffffffffffffffffffffffff16021790555060a08201518160050160006101000a81548173ffffffffffffffffffffffffffffffffffffffff021916908373ffffffffffffffffffffffffffffffffffffffff16021790555050506108f96116bb565b73ffffffffffffffffffffffffffffffffffffffff167f71e4d22df116fdc915c131ee73a1b2033055d24fda3387bc49fed0c5f15a51eb8561093a84611787565b604051610948929190612534565b60405180910390a250505050565b600060048281548110610992577f4e487b7100000000000000000000000000000000000000000000000000000000600052603260045260246000fd5b906000526020600020906006020190508060040160009054906101000a900473ffffffffffffffffffffffffffffffffffffffff1673ffffffffffffffffffffffffffffffffffffffff166109e56116bb565b73ffffffffffffffffffffffffffffffffffffffff161415610a3c576040517f08c379a0000000000000000000000000000000000000000000000000000000008152600401610a3390612584565b60405180910390fd5b610a768160040160009054906101000a900473ffffffffffffffffffffffffffffffffffffffff168260030154610a716116bb565b6117a4565b600060056000610a846116bb565b73ffffffffffffffffffffffffffffffffffffffff1673ffffffffffffffffffffffffffffffffffffffff16815260200190815260200160002090506001816002016000828254610ad5919061278e565b9250508190555080600301839080600181540180825580915050600190039060005260206000200160009091909190915055610b0f6116bb565b8260050160006101000a81548173ffffffffffffffffffffffffffffffffffffffff021916908373ffffffffffffffffffffffffffffffffffffffff160217905550610b596116bb565b73ffffffffffffffffffffffffffffffffffffffff167f96ed2ea4d67ab6369f0e0da43454549a60ae55af2704de2bdc1cdc0221af01e88360040160009054906101000a900473ffffffffffffffffffffffffffffffffffffffff168460030154604051610bc89291906124ab565b60405180910390a2505050565b60008060009054906101000a900473ffffffffffffffffffffffffffffffffffffffff16905090565b600260009054906101000a900473ffffffffffffffffffffffffffffffffffffffff1673ffffffffffffffffffffffffffffffffffffffff16610c3f6116bb565b73ffffffffffffffffffffffffffffffffffffffff161415610c6057600080fd5b600060048381548110610c9c577f4e487b7100000000000000000000000000000000000000000000000000000000600052603260045260246000fd5b906000526020600020906006020190508060040160009054906101000a900473ffffffffffffffffffffffffffffffffffffffff1673ffffffffffffffffffffffffffffffffffffffff16610cef6116bb565b73ffffffffffffffffffffffffffffffffffffffff1614610d0f57600080fd5b600260009054906101000a900473ffffffffffffffffffffffffffffffffffffffff1673ffffffffffffffffffffffffffffffffffffffff168160050160009054906101000a900473ffffffffffffffffffffffffffffffffffffffff1673ffffffffffffffffffffffffffffffffffffffff1614610d8d57600080fd5b610d9682611787565b8160030181905550505050565b6005602052806000526040600020600091509050806000018054610dc69061290b565b80601f0160208091040260200160405190810160405280929190818152602001828054610df29061290b565b8015610e3f5780601f10610e1457610100808354040283529160200191610e3f565b820191906000526020600020905b815481529060010190602001808311610e2257829003601f168201915b5050505050908060010160009054906101000a900460ff16908060020154905083565b610e6a611b2b565b60048281548110610ea4577f4e487b7100000000000000000000000000000000000000000000000000000000600052603260045260246000fd5b90600052602060002090600602016040518060c0016040529081600082018054610ecd9061290b565b80601f0160208091040260200160405190810160405280929190818152602001828054610ef99061290b565b8015610f465780601f10610f1b57610100808354040283529160200191610f46565b820191906000526020600020905b815481529060010190602001808311610f2957829003601f168201915b50505050508152602001600182018054610f5f9061290b565b80601f0160208091040260200160405190810160405280929190818152602001828054610f8b9061290b565b8015610fd85780601f10610fad57610100808354040283529160200191610fd8565b820191906000526020600020905b815481529060010190602001808311610fbb57829003601f168201915b50505050508152602001600282018054610ff19061290b565b80601f016020809104026020016040519081016040528092919081815260200182805461101d9061290b565b801561106a5780601f1061103f5761010080835404028352916020019161106a565b820191906000526020600020905b81548152906001019060200180831161104d57829003601f168201915b50505050508152602001600382015481526020016004820160009054906101000a900473ffffffffffffffffffffffffffffffffffffffff1673ffffffffffffffffffffffffffffffffffffffff1673ffffffffffffffffffffffffffffffffffffffff1681526020016005820160009054906101000a900473ffffffffffffffffffffffffffffffffffffffff1673ffffffffffffffffffffffffffffffffffffffff1673ffffffffffffffffffffffffffffffffffffffff16815250509050919050565b6000600654905090565b60606004805480602002602001604051908101604052809291908181526020016000905b828210156113fc57838290600052602060002090600602016040518060c00160405290816000820180546111919061290b565b80601f01602080910402602001604051908101604052809291908181526020018280546111bd9061290b565b801561120a5780601f106111df5761010080835404028352916020019161120a565b820191906000526020600020905b8154815290600101906020018083116111ed57829003601f168201915b505050505081526020016001820180546112239061290b565b80601f016020809104026020016040519081016040528092919081815260200182805461124f9061290b565b801561129c5780601f106112715761010080835404028352916020019161129c565b820191906000526020600020905b81548152906001019060200180831161127f57829003601f168201915b505050505081526020016002820180546112b59061290b565b80601f01602080910402602001604051908101604052809291908181526020018280546112e19061290b565b801561132e5780601f106113035761010080835404028352916020019161132e565b820191906000526020600020905b81548152906001019060200180831161131157829003601f168201915b50505050508152602001600382015481526020016004820160009054906101000a900473ffffffffffffffffffffffffffffffffffffffff1673ffffffffffffffffffffffffffffffffffffffff1673ffffffffffffffffffffffffffffffffffffffff1681526020016005820160009054906101000a900473ffffffffffffffffffffffffffffffffffffffff1673ffffffffffffffffffffffffffffffffffffffff1673ffffffffffffffffffffffffffffffffffffffff16815250508152602001906001019061115e565b50505050905090565b61140d6116bb565b73ffffffffffffffffffffffffffffffffffffffff1661142b610bd5565b73ffffffffffffffffffffffffffffffffffffffff1614611481576040517f08c379a0000000000000000000000000000000000000000000000000000000008152600401611478906125a4565b60405180910390fd5b8060018190555050565b6114936116bb565b73ffffffffffffffffffffffffffffffffffffffff166114b1610bd5565b73ffffffffffffffffffffffffffffffffffffffff1614611507576040517f08c379a00000000000000000000000000000000000000000000000000000000081526004016114fe906125a4565b60405180910390fd5b600073ffffffffffffffffffffffffffffffffffffffff168173ffffffffffffffffffffffffffffffffffffffff161415611577576040517f08c379a000000000000000000000000000000000000000000000000000000000815260040161156e90612564565b60405180910390fd5b611580816116c3565b50565b61158b6116bb565b73ffffffffffffffffffffffffffffffffffffffff166115a9610bd5565b73ffffffffffffffffffffffffffffffffffffffff16146115ff576040517f08c379a00000000000000000000000000000000000000000000000000000000081526004016115f6906125a4565b60405180910390fd5b600360009054906101000a900473ffffffffffffffffffffffffffffffffffffffff1673ffffffffffffffffffffffffffffffffffffffff1663a9059cbb83836040518363ffffffff1660e01b815260040161165c9291906124ab565b602060405180830381600087803b15801561167657600080fd5b505af115801561168a573d6000803e3d6000fd5b505050506040513d601f19601f820116820180604052508101906116ae9190611d09565b6116b757600080fd5b5050565b600033905090565b60008060009054906101000a900473ffffffffffffffffffffffffffffffffffffffff169050816000806101000a81548173ffffffffffffffffffffffffffffffffffffffff021916908373ffffffffffffffffffffffffffffffffffffffff1602179055508173ffffffffffffffffffffffffffffffffffffffff168173ffffffffffffffffffffffffffffffffffffffff167f8be0079c531659141344cd1fd0a4f28419497f9722a3daafe3b4186f6b6457e060405160405180910390a35050565b6000670de0b6b3a76400008261179d9190612815565b9050919050565b600360009054906101000a900473ffffffffffffffffffffffffffffffffffffffff1673ffffffffffffffffffffffffffffffffffffffff166370a08231826040518263ffffffff1660e01b81526004016117ff9190612430565b60206040518083038186803b15801561181757600080fd5b505afa15801561182b573d6000803e3d6000fd5b505050506040513d601f19601f8201168201806040525081019061184f9190611e47565b821115611891576040517f08c379a0000000000000000000000000000000000000000000000000000000008152600401611888906125c4565b60405180910390fd5b81600360009054906101000a900473ffffffffffffffffffffffffffffffffffffffff1673ffffffffffffffffffffffffffffffffffffffff1663dd62ed3e83306040518363ffffffff1660e01b81526004016118ef92919061244b565b60206040518083038186803b15801561190757600080fd5b505afa15801561191b573d6000803e3d6000fd5b505050506040513d601f19601f8201168201806040525081019061193f9190611e47565b1015611980576040517f08c379a0000000000000000000000000000000000000000000000000000000008152600401611977906125e4565b60405180910390fd5b6000600360009054906101000a900473ffffffffffffffffffffffffffffffffffffffff1673ffffffffffffffffffffffffffffffffffffffff166323b872dd8386866040518463ffffffff1660e01b81526004016119e193929190612474565b602060405180830381600087803b1580156119fb57600080fd5b505af1158015611a0f573d6000803e3d6000fd5b505050506040513d601f19601f82011682018060405250810190611a339190611d09565b905080611a75576040517f08c379a0000000000000000000000000000000000000000000000000000000008152600401611a6c90612604565b60405180910390fd5b50505050565b828054611a879061290b565b90600052602060002090601f016020900481019282611aa95760008555611af0565b82601f10611ac257805160ff1916838001178555611af0565b82800160010185558215611af0579182015b82811115611aef578251825591602001919060010190611ad4565b5b509050611afd9190611b8d565b5090565b60405180608001604052806060815260200160001515815260200160008152602001606081525090565b6040518060c0016040528060608152602001606081526020016060815260200160008152602001600073ffffffffffffffffffffffffffffffffffffffff168152602001600073ffffffffffffffffffffffffffffffffffffffff1681525090565b5b80821115611ba6576000816000905550600101611b8e565b5090565b6000611bbd611bb8846126b4565b612683565b905082815260208101848484011115611bd557600080fd5b611be08482856128c9565b509392505050565b600081359050611bf781612a53565b92915050565b600081359050611c0c81612a6a565b92915050565b600081519050611c2181612a81565b92915050565b600082601f830112611c3857600080fd5b8135611c48848260208601611baa565b91505092915050565b600081359050611c6081612a98565b92915050565b600081519050611c7581612a98565b92915050565b600060208284031215611c8d57600080fd5b6000611c9b84828501611be8565b91505092915050565b600060208284031215611cb657600080fd5b6000611cc484828501611bfd565b91505092915050565b60008060408385031215611ce057600080fd5b6000611cee85828601611be8565b9250506020611cff85828601611c51565b9150509250929050565b600060208284031215611d1b57600080fd5b6000611d2984828501611c12565b91505092915050565b600060208284031215611d4457600080fd5b600082013567ffffffffffffffff811115611d5e57600080fd5b611d6a84828501611c27565b91505092915050565b60008060008060808587031215611d8957600080fd5b600085013567ffffffffffffffff811115611da357600080fd5b611daf87828801611c27565b945050602085013567ffffffffffffffff811115611dcc57600080fd5b611dd887828801611c27565b935050604085013567ffffffffffffffff811115611df557600080fd5b611e0187828801611c27565b9250506060611e1287828801611c51565b91505092959194509250565b600060208284031215611e3057600080fd5b6000611e3e84828501611c51565b91505092915050565b600060208284031215611e5957600080fd5b6000611e6784828501611c66565b91505092915050565b60008060408385031215611e8357600080fd5b6000611e9185828601611c51565b9250506020611ea285828601611c51565b9150509250929050565b6000611eb88383612265565b905092915050565b6000611ecc83836123fd565b60208301905092915050565b611ee18161286f565b82525050565b611ef08161286f565b82525050565b6000611f0182612704565b611f0b818561273f565b935083602082028501611f1d856126e4565b8060005b85811015611f595784840389528151611f3a8582611eac565b9450611f4583612725565b925060208a01995050600181019050611f21565b50829750879550505050505092915050565b6000611f768261270f565b611f808185612750565b9350611f8b836126f4565b8060005b83811015611fbc578151611fa38882611ec0565b9750611fae83612732565b925050600181019050611f8f565b5085935050505092915050565b611fd281612893565b82525050565b611fe181612893565b82525050565b6000611ff28261271a565b611ffc818561276c565b935061200c8185602086016128d8565b61201581612a42565b840191505092915050565b600061202b8261271a565b612035818561277d565b93506120458185602086016128d8565b61204e81612a42565b840191505092915050565b600061206660268361277d565b91507f4f776e61626c653a206e6577206f776e657220697320746865207a65726f206160008301527f64647265737300000000000000000000000000000000000000000000000000006020830152604082019050919050565b60006120cc60208361277d565b91507f596f752063616e6e6f742062757920796f7572206f776e2070726f64756374736000830152602082019050919050565b600061210c60208361277d565b91507f4f776e61626c653a2063616c6c6572206973206e6f7420746865206f776e65726000830152602082019050919050565b600061214c60228361277d565b91507f496e7375666963656e7420746f6b656e7320746f206d616b65207472616e736660008301527f65720000000000000000000000000000000000000000000000000000000000006020830152604082019050919050565b60006121b260248361277d565b91507f496e7375666963656e7420616c6c6f77656e636520746f206d616b652072657360008301527f65727665000000000000000000000000000000000000000000000000000000006020830152604082019050919050565b6000612218600083612761565b9150600082019050919050565b600061223260088361277d565b91507f4e6f742073656e740000000000000000000000000000000000000000000000006000830152602082019050919050565b600060c08301600083015184820360008601526122828282611fe7565b9150506020830151848203602086015261229c8282611fe7565b915050604083015184820360408601526122b68282611fe7565b91505060608301516122cb60608601826123fd565b5060808301516122de6080860182611ed8565b5060a08301516122f160a0860182611ed8565b508091505092915050565b600060c08301600083015184820360008601526123198282611fe7565b915050602083015184820360208601526123338282611fe7565b9150506040830151848203604086015261234d8282611fe7565b915050606083015161236260608601826123fd565b5060808301516123756080860182611ed8565b5060a083015161238860a0860182611ed8565b508091505092915050565b600060808301600083015184820360008601526123b08282611fe7565b91505060208301516123c56020860182611fc9565b5060408301516123d860408601826123fd565b50606083015184820360608601526123f08282611f6b565b9150508091505092915050565b612406816128bf565b82525050565b612415816128bf565b82525050565b60006124268261220b565b9150819050919050565b60006020820190506124456000830184611ee7565b92915050565b60006040820190506124606000830185611ee7565b61246d6020830184611ee7565b9392505050565b60006060820190506124896000830186611ee7565b6124966020830185611ee7565b6124a3604083018461240c565b949350505050565b60006040820190506124c06000830185611ee7565b6124cd602083018461240c565b9392505050565b600060208201905081810360008301526124ee8184611ef6565b905092915050565b600060608201905081810360008301526125108186612020565b905061251f6020830185611fd8565b61252c604083018461240c565b949350505050565b6000604082019050818103600083015261254e8185612020565b905061255d602083018461240c565b9392505050565b6000602082019050818103600083015261257d81612059565b9050919050565b6000602082019050818103600083015261259d816120bf565b9050919050565b600060208201905081810360008301526125bd816120ff565b9050919050565b600060208201905081810360008301526125dd8161213f565b9050919050565b600060208201905081810360008301526125fd816121a5565b9050919050565b6000602082019050818103600083015261261d81612225565b9050919050565b6000602082019050818103600083015261263e81846122fc565b905092915050565b600060208201905081810360008301526126608184612393565b905092915050565b600060208201905061267d600083018461240c565b92915050565b6000604051905081810181811067ffffffffffffffff821117156126aa576126a9612a13565b5b8060405250919050565b600067ffffffffffffffff8211156126cf576126ce612a13565b5b601f19601f8301169050602081019050919050565b6000819050602082019050919050565b6000819050602082019050919050565b600081519050919050565b600081519050919050565b600081519050919050565b6000602082019050919050565b6000602082019050919050565b600082825260208201905092915050565b600082825260208201905092915050565b600081905092915050565b600082825260208201905092915050565b600082825260208201905092915050565b6000612799826128bf565b91506127a4836128bf565b9250827fffffffffffffffffffffffffffffffffffffffffffffffffffffffffffffffff038211156127d9576127d8612986565b5b828201905092915050565b60006127ef826128bf565b91506127fa836128bf565b92508261280a576128096129b5565b5b828204905092915050565b6000612820826128bf565b915061282b836128bf565b9250817fffffffffffffffffffffffffffffffffffffffffffffffffffffffffffffffff048311821515161561286457612863612986565b5b828202905092915050565b600061287a8261289f565b9050919050565b600061288c8261289f565b9050919050565b60008115159050919050565b600073ffffffffffffffffffffffffffffffffffffffff82169050919050565b6000819050919050565b82818337600083830152505050565b60005b838110156128f65780820151818401526020810190506128db565b83811115612905576000848401525b50505050565b6000600282049050600182168061292357607f821691505b60208210811415612937576129366129e4565b5b50919050565b6000612948826128bf565b91507fffffffffffffffffffffffffffffffffffffffffffffffffffffffffffffffff82141561297b5761297a612986565b5b600182019050919050565b7f4e487b7100000000000000000000000000000000000000000000000000000000600052601160045260246000fd5b7f4e487b7100000000000000000000000000000000000000000000000000000000600052601260045260246000fd5b7f4e487b7100000000000000000000000000000000000000000000000000000000600052602260045260246000fd5b7f4e487b7100000000000000000000000000000000000000000000000000000000600052604160045260246000fd5b6000601f19601f8301169050919050565b612a5c8161286f565b8114612a6757600080fd5b50565b612a7381612881565b8114612a7e57600080fd5b50565b612a8a81612893565b8114612a9557600080fd5b50565b612aa1816128bf565b8114612aac57600080fd5b5056fea26469706673582212207b23395d708c3c06ea52045e9cec2d47cd39dd0b99039ec2e9942e9755c0afa164736f6c63430008000033",
  "immutableReferences": {},
  "source": "// SPDX-License-Identifier: MIT\npragma solidity ^0.8.0;\n\nimport \"./Address.sol\";\nimport \"@openzeppelin/contracts/token/ERC20/IERC20.sol\";\nimport \"@openzeppelin/contracts/utils/math/SafeMath.sol\";\nimport \"@openzeppelin/contracts/access/Ownable.sol\";\n\ncontract MetaDapp is Ownable {\n\n    using Address for address;\n    using SafeMath for uint;\n    using SafeMath for uint256;\n\n    uint private secureAddPercent = 5;\n    address private noOne = address(0);\n    IERC20 private token;\n\n    struct User {\n        string dataHash;\n        bool updated;\n        uint total_products;\n        uint[] products;\n    }\n\n    struct Product {\n        string name;\n        string dataHash;\n        string section;\n        uint price;\n        address owner;\n        address reserved_by;\n    }\n\n    Product[] private products;\n    mapping(address => User) public users;\n\n    uint private _totalUsers;\n\n    event ProductPurchased(address indexed user, address owner, uint price);\n    event ProductAdded(address indexed owner, string name, uint price);\n\n    constructor(address _token){\n        token = IERC20(_token);\n        _totalUsers = 0;\n    }\n\n    function setSecureAddPercent(uint percent) external onlyOwner {\n        secureAddPercent = percent;\n    }\n\n    function getSecureAddPercent() private onlyOwner view returns(uint){\n        return secureAddPercent;\n    }\n\n    function __percentValue(uint _amount) public view returns(uint){\n        return (secureAddPercent * _amount) / 100;\n    }\n\n    function __amount(uint _amount) private pure returns(uint){\n        return _amount * (10 ** 18);\n    }\n\n    function addProduct(string memory name, \n                        string memory dataHash, \n                        string memory section, uint price) external {\n\n        transferTokens(address(this), __amount(__percentValue(price)), _msgSender());\n\n        products.push(Product(name, dataHash, section, __amount(price), _msgSender(), noOne));\n        emit ProductAdded(_msgSender(), name, __amount(price));\n    }\n\n    function transferTokens(address _owner, uint _price, address _buyer) private {\n        require(_price <= token.balanceOf(_buyer), 'Insuficent tokens to make transfer');\n        require(token.allowance(_buyer, address(this)) >= _price, 'Insuficent allowence to make reserve');\n\n        bool sent = token.transferFrom(_buyer, _owner, _price);\n        require(sent, 'Not sent');\n    }\n\n    function updateProductPrice(uint product_id, uint price) external {\n        require(_msgSender() != noOne);\n        Product storage product = products[product_id];\n        require(_msgSender() == product.owner);\n        require(product.reserved_by == noOne);\n        product.price = __amount(price);\n    }\n\n    function updateUserContact(string memory dataHash) external {\n        require(_msgSender() != noOne);\n        User storage user = users[_msgSender()];\n        user.dataHash = dataHash;\n\n        if(!user.updated)\n            _totalUsers++;\n\n        user.updated = true;\n    }\n\n    function buyProduct(uint product_id) external {\n        Product storage product = products[product_id];\n        require(_msgSender() != product.owner, 'You cannot buy your own products');\n        transferTokens(product.owner, product.price, _msgSender());\n        User storage buyer = users[_msgSender()];\n        buyer.total_products += 1;\n        buyer.products.push(product_id);\n        product.reserved_by = _msgSender();\n\n        emit ProductPurchased(_msgSender(), product.owner, product.price);\n    }\n\n    function totalUsers() external view returns (uint){\n        return _totalUsers;\n    }\n\n    function getProducts() external view returns(Product[] memory){\n      return products;\n    }\n\n    function getProduct(uint product_id) external view returns(Product memory){\n      return products[product_id];\n    }\n\n    function getUser(address userAddress) external view returns(User memory){\n      return users[userAddress];\n    }\n\n    function withdrawBNB(address payable account) external onlyOwner {\n        (bool success, ) = account.call{value: address(this).balance}(\"\");\n        require(success);\n    }\n\n    function withdraw(address to, uint256 amount) external onlyOwner{\n        require(token.transfer(to, amount));\n    }\n}",
  "sourcePath": "/Users/lscofield/Documents/Projects/Cursos/Metadapp/walldapp/contracts/MetaDapp.sol",
  "compiler": {
    "name": "solc",
    "version": "0.8.0+commit.c7dfd78e.Emscripten.clang"
  },
  "schemaVersion": "3.4.7",
  "updatedAt": "2022-08-08T20:23:28.350Z",
  "networkType": "ethereum",
  "devdoc": {
    "kind": "dev",
    "methods": {
      "owner()": {
        "details": "Returns the address of the current owner."
      },
      "renounceOwnership()": {
        "details": "Leaves the contract without owner. It will not be possible to call `onlyOwner` functions anymore. Can only be called by the current owner. NOTE: Renouncing ownership will leave the contract without an owner, thereby removing any functionality that is only available to the owner."
      },
      "transferOwnership(address)": {
        "details": "Transfers ownership of the contract to a new account (`newOwner`). Can only be called by the current owner."
      }
    },
    "version": 1
  },
  "userdoc": {
    "kind": "user",
    "methods": {},
    "version": 1
  }
}